:020000040800F2
:10000000702F00200901000811240008451E000877
:100010000D240008CD0C00083D4E00080000000033
:10002000000000000000000000000000893300080C
:100030007519000800000000F5260008F13C0008D2
:100040002301000823010008230100082301000800
:1000500023010008230100082301000823010008F0
:10006000230100082301000823010008AD11000846
:1000700023010008230100082301000823010008D0
:100080002301000823010008C50700082301000818
:10009000A149000823010008690D0008611A000841
:1000A00023010008E93F0008453E0008230100083D
:1000B0009D3E0008DD3E00089D3F0008230100082A
:1000C0002301000823010008230100082301000880
:1000D0002301000823010008230100082301000870
:1000E00023010008230100084347000823010008FA
:1000F00023010008DFF80CD000F0F0FA00480047B8
:10010000AD5A0008702F0020064880470648004777
:10011000FEE7FEE7FEE7FEE7FEE7FEE7FEE7FEE7B7
:10012000FEE7FEE7DD3D0008F5000008F0B480EAD8
:100130000102D40F4200B2EB410F02D20246084640
:1001400011464A0042D0C30DDDB2C1F3C752AD1A09
:10015000202D35DAC1F3160141F4000204B15242F8
:10016000C5F1200602FA06F12A411044B3EBD05F34
:1001700023D0C4B1012DA0EBC35009DCF0BC4FF07B
:10018000004202EAC352DBB200F5000000F01BBAE5
:10019000400000F1807000EBC350A0F1807040EA95
:1001A000D170490009E0490841EAC071A0EBC35091
:1001B00000F50000400800EBC350F0BC00F0FAB9B5
:1001C0006142012202EB4101001BF6E7F0BC7047DF
:1001D00081F00041AAE780F00040A7E780EA010231
:1001E00010B502F00043400022D04A001FD0010E9B
:1001F00001EB1261C0F35600C2F3560240F4000056
:1002000042F40002A0FB022000047F39140400D055
:10021000401C50EA124001D44000491EC2B20C06F4
:1002200004EBD010401C4008802A02D003E00020DC
:1002300010BD20F00100002900DA0020184310BD95
:1002400030B480EA010202F0004530F0004221F0B3
:10025000004013D090B1C30DD40DC2F31601C0F30A
:100260001600E41A41F4000140F400027D3491428A
:1002700001D3641C00E04900002C02DA30BC0020ED
:1002800070474FF400000023914201D3891A0343C1
:1002900040084FEA4101F7D151B1914202D14FF0EC
:1002A000004105E002D24FF0010101E06FF00101D1
:1002B00003EBC450284430BC00F07CB92DE9FE4F5C
:1002C00081EA030404F0004421F0004100944FF05F
:1002D000000B23F0004350EA01045ED052EA03040D
:1002E0005BD0C3F30A54C1F30A552C44A4F2F3348F
:1002F0000194A0FB0254C1F3130141F48011C3F334
:10030000130343F4801301FB024400FB034E840AF1
:10031000970A44EA815447EA8357A4FB0768029589
:100320008D0A05FB07854FEA932C04FB0C54270527
:10033000029D4FEA065847EA1637B5EB08056EEB03
:10034000070C870E920E47EA811742EA8312A7FB39
:100350000201B6EB0B0164EB00042B0D43EA0C33F6
:100360005E1844EB1C50DA465146E7FB0201C5F328
:1003700013044FEA0B3343EA14534FEA0432019C4F
:1003800043EA0603A4F10C040294009CCDE900B4F6
:1003900000F056F903B0BDE8F08F00200146F9E700
:1003A0002DE9F04D81EA030404F0004B21F00045F3
:1003B00014464FF0000A23F0004150EA050220D015
:1003C00054EA01021DD0C5F30A570246C5F31303D0
:1003D000C1F31300C1F30A5640F4801543F48013AF
:1003E000A7EB0608101BD64608F2FD3873EB050094
:1003F00002D308F1010801E092185B41B8F1000F47
:1004000003DA00200146BDE8F08D00204FF4801192
:10041000064684460EE0171B73EB050705D3121B37
:1004200063EB050306434CEA010C49084FEA300030
:1004300092185B4150EA0107EDD152EA030012D055
:1004400082EA040083EA0501084305D0101BAB4192
:1004500006D20122002306E000224FF0004302E012
:100460006FF0010253101AEB06004CEB085110EB31
:100470000A0041EB0B01BDE8F04D00F0D2B8C10F0E
:1004800080EAE0700844CA079623002100F09BB878
:1004900096230022114600F096B820F00040C10DCE
:1004A000C0F3160040F400007F2901DA00207047F5
:1004B000962903DCC1F19601C840704796398840FF
:1004C0007047C1F30A5210B5C1F3130140F2FF3374
:1004D00041F480119A4201DA002010BD40F233430A
:1004E0009A42A2F2334203DC524200F053F810BDAC
:1004F000904010BD00F0004230F000400AD0C10D25
:1005000001F56071C0F3160042EA0151C2084007CC
:100510001143704700200146704701F0004330B49A
:1005200021F0004150EA010206D00A0DA2F56072E6
:10053000C1F31301002A02DC30BC00207047440FD5
:1005400044EAC104C100E01830BC00EBC25000F026
:1005500031B80000002801DBC0F10040002901DBB8
:10056000C1F100418142704730B50B460146002081
:100570002022012409E021FA02F59D4205D303FA65
:1005800002F5491B04FA02F52844151EA2F10102E6
:10059000F1DC30BD202A04DB203A21FA02F00021F0
:1005A000704721FA02F3D040C2F120029140084383
:1005B000194670470029A8BF7047401C490008BF72
:1005C00020F00100704710B4B0FA80FC00FA0CF083
:1005D00050EA010404BF10BC704749B1CCF12004BB
:1005E00021FA04F411FA0CF118BF01212143084348
:1005F000A3EB0C01CB1D4FEA00614FEA102042BF74
:10060000002010BC704700EBC35010440029A4BF69
:1006100010BC7047401C490008BF20F0010010BC0E
:10062000704710B5141E73F1000408DA401C41F144
:10063000000192185B411A4301D120F0010010BD66
:100640002DE9F04D92469B4611B1B1FA81F202E0DC
:10065000B0FA80F22032904600F052F804460F467D
:1006600040EA0A0041EA0B0153465A46084313D0B8
:10067000114653EA010019D0C8F140025046FFF775
:1006800089FF05460E4650465946424600F038F866
:10069000084305D0012004E020463946BDE8F08D2E
:1006A0000020054346EAE0762C4337430A98630569
:1006B000E40AA0EB08000022FD0A44EA47540A308D
:1006C00002D500200146E9E7010510196941DDE97D
:1006D000084500196941BDE8F04DA2E7064C074DF9
:1006E00006E0E06840F0010394E807009847103402
:1006F000AC42F6D3FFF702FD90640008C064000826
:10070000202A04DB203A00FA02F1002070479140D1
:10071000C2F1200320FA03F319439040704770B5EB
:100720008C1810F8015B15F0070301D110F8013B9C
:100730002A1106D110F8012B03E010F8016B01F823
:10074000016B5B1EF9D12B0705D40023521E0DD47B
:1007500001F8013BFAE710F8013BCB1A921C03E0C9
:1007600013F8015B01F8015B521EF9D5A142D8D301
:10077000002070BD40F2AD2CC2F2000C604740F288
:10078000E52CC2F2000C604740F25D3CC2F2000C66
:10079000604740F21D4CC2F2000C604740F2993CA9
:1007A000C2F2000C604740F2D51CC2F2000C604758
:1007B00040F2051CC2F2000C604740F2B11CC2F2CC
:1007C000000C604710B540F20741324800F0D9F8FC
:1007D00000285CD040F207412E4800F07AF818213A
:1007E0002C4800F0E1F804462B48007800284ED150
:1007F0002A48007800284AD12948407AB4EB400FB3
:1008000000DA10BD2748C07870B16010264951F851
:100810002000401C6110244A42F82100234800684F
:10082000401C2249086032E01020214908831F48FB
:100830000068401C1D490860194840791D49098815
:1008400088421CDA16484079002818DD154880795E
:10085000A8B10020174908801748008840F001001F
:100860001549088001220C211348143803F0D8FDE3
:10087000012211461048143803F07FFE04E00D48B1
:100880000088401C0B49088010200949488300BF9C
:10089000B7E7000000240140E00600201605002014
:1008A000F0060020FC060020080700200C2700208E
:1008B00000000240C40400201408004021B18268F6
:1008C00042F00402826003E0826822F00402826047
:1008D000704700220A12D3430360704721B1826837
:1008E00042F00102826003E0826822F0010282602D
:1008F000704721B1826842F48072826003E08268AE
:1009000022F480728260704721B1826842F40072E2
:10091000826003E0826822F4007282607047000007
:1009200010B504460548844207D10121401502F064
:100930006DFA0021601502F069FA10BD0024014033
:100940000A460021816821F0F0011143816070475F
:100950000A460021816821F47021114381607047AB
:100960000A460021816821F44011114381607047DB
:100970000246002013680B400BB1012000E000206C
:10098000704770B502460020002300240B0A55680A
:1009900001268E4005EA060415681D4015B10CB10C
:1009A000012000E0002070BD08B502460020009044
:1009B000009201F13000009B1844009000980068FC
:1009C00080B208BD10B50B460021D9B2012404FA4B
:1009D00001F11AB144680C43446002E044688C435E
:1009E000446010BD30B50246002000235068104C12
:1009F00020400D790C6844EA05242043506090683B
:100A00000C4C2040D1E903542C438D682C434D7984
:100A100044EA450420439060106B20F0F8700C7D90
:100A2000641EE4B2234340EA0350106330BD00006B
:100A3000FFFEFFFCFDF7FFC0F0B5044615460020A1
:100A4000002200261D2911DDE06DA1F11E0707EB34
:100A5000470C072707FA0CF29043A1F11E0707EB9A
:100A6000470703FA07F21043E06534E0132911DD6C
:100A7000E068A1F1140707EB470C072707FA0CF20F
:100A80009043A1F1140707EB470703FA07F210435D
:100A9000E06020E0092911DD2069A1F10A0707EBD8
:100AA000470C072707FA0CF29043A1F10A0707EB5E
:100AB000470703FA07F2104320610CE0606901EB7D
:100AC000410C072707FA0CF2904301EB410703FAA8
:100AD00007F210436061606CC0F30156EF1C06F131
:100AE000010CA7EB0C0707EB870C1F2707FA0CF28A
:100AF0009043EF1C06F1010CA7EB0C0707EB8707EF
:100B000001FA07F210436064F0BD10B50A460021F7
:100B10000023416C21F44011531E41EA035141640A
:100B200010BD1AB143680B43436002E043688B4336
:100B300043607047F0B504460D46002000211D2D8E
:100B400011DDE06DA5F11E0606EB4607072606FA45
:100B500007F18843A5F11E0606EB460603FA06F1E7
:100B60000843E06534E0132D11DDE068A5F11406BB
:100B700006EB4607072606FA07F18843A5F1140697
:100B800006EB460603FA06F10843E06020E0092D73
:100B900011DD2069A5F10A0606EB4607072606FACD
:100BA00007F18843A5F10A0606EB460603FA06F1AB
:100BB000084320610CE0606905EB4507072606FA4B
:100BC00007F1884305EB450603FA06F10843606127
:100BD000072A0FDA206C561E06EB86071F2606FA38
:100BE00007F18843561E06EB860605FA06F1084310
:100BF00020644AE00D2A0FDAE06BD61F06EB860769
:100C00001F2606FA07F18843D61F06EB860605FA6B
:100C100006F10843E06338E0132A11DAA06BA2F171
:100C20000D0606EB86071F2606FA07F18843A2F198
:100C30000D0606EB860605FA06F10843A06324E0DC
:100C4000192A11DA606BA2F1130606EB86071F263C
:100C500006FA07F18843A2F1130606EB860605FAA9
:100C600006F10843606310E0206BA2F1190606EB61
:100C700086071F2606FA07F18843A2F1190606EB3C
:100C8000860605FA06F108432063F0BD00210160E5
:100C90000171417181604FF04071C16000210161BB
:100CA000012101757047000030B10749096841F41E
:100CB0000001054A116005E00349096821F40001BB
:100CC000014A1160704700000427014000BFFEE7A1
:100CD0000146CAB20B1243EA0220704710B5002049
:100CE00003490860032002F031FC012010BD000020
:100CF000E804002070B505460C46402C0FDA0020B1
:100D0000094908602246C021284604F099F8214686
:100D1000012002F045FC012002F070FC01E00020FF
:100D200070BD0120FCE70000E40400200020014920
:100D300008607047007C004001460020012908D16E
:100D4000084A126802F080020AB1012009E000207E
:100D500007E0044A126802F400520AB1012000E0E0
:100D600000207047007C004010B54FF4800000F078
:100D700045FF30B14FF4800000F03AFF002001F051
:100D80002DFF10BD0021064A1168064A1140D0E926
:100D900000231A4383681A431143014A11607047C4
:100DA000007C0040FFEF03FF08B50020009022E127
:100DB0009748008800F00F009649087008460078B0
:100DC00000287CD19448006894490880084600882F
:100DD00000F03000924908809048008800F44050AC
:100DE0008E4908808C4909684BF6BF7201EA0200FF
:100DF00080F4005080F0200040F4004141F0800178
:100E0000854A11608248008800F0100090BB1046AF
:100E1000006848F60F7108401146086001F036F886
:100E20007D4909684BF6BF7201EA02007B490988D7
:100E300001F4805109B180F480507849098801F4A7
:100E4000005109B180F400507549098801F0100182
:100E500009B180F010007249098801F0200109B140
:100E600080F0200081B241F4004141F080016A4AE3
:100E7000116008BDFFE76848006880B20090BDF8C7
:100E8000000000F40060B0B363480068C0F30E00D7
:100E900048F68F7108406049086002F081FC5E49A5
:100EA00009684BF6BF7201EA02005C49098801F447
:100EB000805109B180F480505849098800E056E01B
:100EC00001F4005109B180F400505549098801F03E
:100ED000100109B180F010005149098801F020018A
:100EE00009B180F0200081B241F4004141F080015D
:100EF000494A1160BDE7FFE7BDF8000000F400407B
:100F0000002878D044480068C0F30E0048F68F717E
:100F100008404149086001F05FFB3F4909684BF612
:100F2000BF7201EA02003D49098801F4805109B10C
:100F300080F480503949098801F4005109B180F4E6
:100F400000503749098801F0100109B180F0100004
:100F50003349098801F0200109B180F0200081B2F5
:100F600041F4004141F080012B4A116081E729489A
:100F700000782C4901EB8000D0F8000C80B2009082
:100F8000BDF8000000F40040C0B12248007801EB39
:100F90008000D0F8000CC0F30E0048F68F710840B6
:100FA0001C4909781F4A02EB8101C1F8000C19495C
:100FB0000978491E1C4A52F821008047BDF80000FC
:100FC00000F08000B8B113480078164901EB8000AA
:100FD000D0F8000C48F60F7108400E490978114A04
:100FE00002EB8101C1F8000C0A490978491E0F4A39
:100FF00052F82100804708484430006880B2044914
:10100000088000F4004000287FF4D2AE00BF30E733
:101010008005002038050020005C00404C050020C1
:101020004E05002000500040A80500208C0500203F
:101030000B4A02EB8001D1F8001C01F4804171B130
:1010400002EB8001D1F8001C48F68F7211404CF27F
:1010500080021143024B03EB8002C2F8001C704770
:10106000005000400B4A02EB8001D1F8001C01F057
:10107000400171B102EB8001D1F8001C48F68F727B
:10108000114048F2C0021143024B03EB8002C2F848
:10109000001C704700500040084A02EB8001D1F864
:1010A000001C48F68F62114048F280021143034B46
:1010B00003EB8002C2F8001C7047000000500040A3
:1010C00039B1084A1268012383401A43054B1A605C
:1010D00006E0044A1268012383409A43014B1A60D8
:1010E000704700000074004010B50121480701F06E
:1010F0006DFE00214FF0005001F068FE10BD0000B1
:1011000030B5002200230A4C226840F6FE74844069
:10111000A243D1E900452C438D682C43CD6844EAB5
:10112000050303FA00F42243014C226030BD0000A5
:101130000074004008B500220092054A009200F1B8
:101140001402009B1A440092009A116008BD00002E
:101150000074004010B541B1084A12680409012327
:10116000A3401A43054B1A6007E0044A12680409B9
:101170000123A3409A43014B1A6010BD0474004040
:101180000021016041608160C160704729B1064A59
:1011900052680243044B5A6004E0034A5268824397
:1011A000014B5A6070470000002004E02DE9F04F29
:1011B00087B0022000F08AF900287DD0012000F0DD
:1011C000C5F800205749086048608860002419E08D
:1011D00054488068544931F81410084451498860D3
:1011E0000846514A4168601C32F8100008444D49D5
:1011F000486008460168A01C32F8100008444949BC
:101200000860E41CB4F5C07FE2DB46488068C00992
:101210004449886008464068C0094860084600683C
:10122000C00908608868FFF733F90190FFF762F999
:1012300002460B46CDE902013C483D49FFF7B0F8B4
:10124000CDE90401FFF769F9064636498869314658
:10125000FFF780F903D03348866104F053FA31492F
:101260000868FFF715F902902E4881690298FEF789
:10127000B5FF30490390FEF7B1FF4FF08041049075
:10128000FEF7ACFF0590FFF708F92B4908802B48C3
:1012900005882A487A38B0F87E70B0F878902149ED
:1012A0008868FFF7F5F804904846FFF7F1F80390D7
:1012B0000499FEF7C5FF00E030E021490590FEF7F4
:1012C0008DFF824617494868FFF7E2F851460390C0
:1012D000FEF784FF1A490490FEF7B2FF0590FFF76E
:1012E000DCF81FFA80F8A8EB0500FFF7C8F80490B7
:1012F000781BFFF7C4F8014602901248FEF7A0FFE2
:1013000003900499FEF76AFF0F490590FEF70EFF60
:1013100083465846FFF7C1F80249C86007B0BDE8E8
:10132000F08F0000C0060020B42700202FDD240627
:101330008195F33F0000C8421A0500207A00F81F8B
:10134000000040400000A0420000F04100F0805149
:1013500011B90349486001E0024908607047000084
:10136000006002400464024021B1026842F00102C0
:10137000026004E002684FF6FE731A400260704794
:1013800001684FF6FE72114001600021016041606A
:101390008160C1604B49884208D14A49083949688F
:1013A00041F00F01474A083A51608AE0454914313B
:1013B000884208D143490839496841F0F001414A5F
:1013C000083A51607DE03F492831884208D13D49C3
:1013D0000839496841F470613A4A083A516070E04E
:1013E00038493C31884208D136490839496841F4C6
:1013F0007041344A083A516063E0324950318842C2
:1014000008D130490839496841F470212D4A083A19
:10141000516056E02B496431884208D12949083986
:10142000496841F47001274A083A516049E025496A
:101430007831884208D123490839496841F0706100
:10144000204A083A51603CE01F49884206D1011FFA
:10145000096841F00F01021F116032E01A4914318E
:10146000884208D11849091F096841F0F001164A5D
:10147000121F116025E014492831884208D1124911
:10148000091F096841F470610F4A121F116018E0CA
:101490000D493C31884208D10B49091F096841F4C4
:1014A0007041094A121F11600BE007495031884210
:1014B00007D10549091F096841F47021024A121F2A
:1014C0001160704708600240086402400146002035
:1014D000002201F0805313B9054B1A6801E0054B57
:1014E0001A6802EA01030BB1012000E000207047F6
:1014F00000600240006402401AB103680B430360BD
:1015000002E003688B430360704710B50022026855
:1015100047F6F0739A430C6A8B6823430C692343A4
:101520004C6923438C692343CC6923434C6A23438E
:101530008C6A23431A430260CB6843600B68836064
:101540004B68C36010BD0021016041608160C160D3
:10155000016141618161C1610162416281627047E3
:101560002DE9F0472848006800F110052E8826482C
:101570000068077AD6B9042F18D1244800780128CA
:101580000FD100212248006880B2801C214A42F815
:10159000101030202049088000BF00201B4908702F
:1015A00003E0072710201C49088027E0AC88A642EA
:1015B00001D8042000E002200746B44200D9344696
:1015C000A0B2A96888478046002000F013FC81463D
:1015D000A2B24946404603F033FCA1B2002001F01C
:1015E000DFFF2888001B288068882044688030201E
:1015F0000949088000020949088000BF02490968BA
:101600000F72BDE8F08700003C0500203605002081
:10161000505C0040006000404E0500204C0500205A
:101620002DE9F0412848006800F110042688A068E0
:10163000C0B1BEB1A588B54200D93546A8B2A168EF
:10164000884707462088401B2080608828446080A7
:10165000002000F0ADFB8046AAB24146384600F0BB
:10166000E3FF00BF208850B14FF440501749088075
:101670000021084601F094FF302015490880208899
:10168000A188884204DB03200F490968087218E02A
:101690002088002804DD05200B490968087210E045
:1016A000208870B906200849096808720021094895
:1016B000006880B2801C084A42F8101030200449AB
:1016C0000880BDE8F08100003C0500204C050020AA
:1016D0004E050020505C0040006000402DE9F84FAE
:1016E0009B48006845780027BA46062D1BD19848CC
:1016F0000068007800F07F00002813D19449096841
:101700008878012803D193490968CF690AE0022843
:1017100003D1904909680F6A04E0032802D18D497A
:1017200009684F6A94E0002D64D1894800684088B8
:1017300000285FD186480068C08802285AD18448B2
:1017400000680079002855D181480068007800F0D1
:101750007F0028B97E480068808808B97E4F77E00E
:101760007B480068007800F07F00012810D178499C
:1017700009684879774909688A69002190470028F3
:1017800066D173480068807A002861D0724F5FE0AC
:101790006F480068007800F07F00022858D16C483C
:1017A0000068407900F00F0669480068407900F051
:1017B000700967480068407900F0800038B16749D7
:1017C00001EB8600D0F8000C00F0300806E0634919
:1017D00001EB8600D0F8000C00F440586048007817
:1017E000B04235D9B9F1000F32D1B8F1000F2FD086
:1017F000594F2DE0082D07D155480068007800F0BA
:101800007F0028BB574F23E00A2D21D150480068A4
:10181000007800F07F0001281AD14D480068807AD6
:10182000B0B14B480068408890B9494800680079D9
:1018300070B947480068C088012809D1444909683F
:101840004879444909688A690021904700B9464FA0
:1018500057B13F480068A0F812A03D480068876172
:101860000020B84700240FE0394A12685078394AFE
:101870001268116988470446032C05D109203449B0
:1018800009680872BDE8F88F31480068008A4FF691
:10189000FF71884204D109202D4909680872F1E7D7
:1018A000022C03D02A480068008A20B90820284961
:1018B00009680872E6E726480068007800F08000B2
:1018C000E0B323480068C088009021480068008A7F
:1018D0000099884204D91E4900980968088223E0CB
:1018E0001B480068008A1A490968C98888421BDABF
:1018F00017480068008A1749096891F82C10884237
:1019000003DA0020194908700EE011480068008AC7
:101910001049096891F82C1090FBF1F201FB1200BC
:1019200010B90120114908700A48006890F82C107D
:10193000074800688182FFF713FE07E0FFE70320F6
:1019400003490968087200030949088000BF99E744
:101950003C05002040050020413A000800500040AE
:10196000D0050020C5390008153A000836050020CA
:101970004C050020704700000120014908607047B5
:10198000E404002010B5012007490860032000F09E
:101990001FFA064908600846008882B24FF4887131
:1019A000034800F041FE10BDE80400207C05002043
:1019B0002C2B00201FB50121084601F0E7F900207B
:1019C0008DF80C008DF80F004FF4004002900320BA
:1019D0008DF80D0002A90D4800F06EF901210846AE
:1019E00001F004FA0F21002001F0D0FC4FF4004078
:1019F000009000208DF8040008208DF805000120DB
:101A00008DF80600684600F005F91FBD0000024091
:101A10000EB50121084601F0E9F90821012001F085
:101A2000B5FC4FF48070009000208DF804000C206D
:101A30008DF8050001208DF80600684600F0EAF8F0
:101A400017208DF8080002208DF809008DF80A0093
:101A500001208DF80B0002A800F0DCFC0EBD000098
:101A600070B5002500244FF4807000F0C7F80028FE
:101A70007DD05748007800284CD15649088800216D
:101A800000F01EFC00BF12E009E04EF66020844228
:101A900004D901220C21504802F0C2FC641C4FF40E
:101AA00080714E4800F06DF90028EED06D1C4C4856
:101AB0008542E9D301221146474802F05EFD4EF609
:101AC000602084427ED94748007820B301204549F0
:101AD000C87003F00BFE002001F0A8F8012001F00F
:101AE000A5F80121404802F0ADFC00214FF08040F4
:101AF00002F0A8FC0421080702F0A1FC01218807DC
:101B000002F09DFC33490888002100F0D9FB002039
:101B10003449887156E03348C07848BB01203149C8
:101B2000C8700020314908602E49087103F0DEFDBD
:101B3000002001F07BF8012001F078F801212A480B
:101B400002F080FC00214FF0804002F07BFC042179
:101B5000080702F074FC0121880702F070FC1D499F
:101B60000888002100F0ACFB0821012001E02DE0F5
:101B700005E000F0A5FB00201A49887122E0002052
:101B80001849C87003F0B2FD002001F04FF80120A1
:101B900001F04CF80121144802F054FC012188079F
:101BA00002F050FC0421080702F049FC01218807DB
:101BB00002F045FC07490888002100F081FB012064
:101BC000084988714FF4807000F012F870BD000071
:101BD0002705002000050020000800400004024006
:101BE000A0860100FC060020000C0140DC0400205F
:101BF00001490860704700001404014001460020BC
:101C0000034A12680A400AB1012000E00020704730
:101C100014040140002123498279002A3AD00A465F
:101C2000126803689A430B461A600A1D126803681B
:101C30009A430B1D1A60027911440A6803681A431B
:101C40000A60184A0832126803689A43154B083331
:101C50001A601A1D126803689A43124B0C331A60FB
:101C60004279102A0ED11A1F126803681A430D4BCD
:101C700008331A601A1D126803681A43094B0C33A3
:101C80001A600DE00749427911440A6803681A4353
:101C90000A6005E0027911440A6803689A430A6001
:101CA00070470000000401400021016001710C2117
:101CB0004171002181717047F0B502460B46002149
:101CC00000240025002000BF35E0012606FA01F4BB
:101CD0001E6806EA0405A5422CD110684F000326B1
:101CE000BE40B0431E794F00BE40304310601E79A5
:101CF000012E02D01E79022E12D190684F000326C9
:101D0000BE40B0435E794F00BE4030439060908843
:101D100001268E40B0439E798E40B6B2304390800B
:101D2000D0684F000326BE40B043DE794F00BE406E
:101D30003043D060491C1029C7D3F0BDF0B5002353
:101D400000244D07ED0E02FA05F3CE1000F1200538
:101D500055F826504E07F70E0F26BE40B543CF105C
:101D600000F1200646F82750CE1000F1200555F866
:101D7000265045EA0304CE1000F1200545F8264020
:101D8000F0BD02460020138A0B400BB1012000E099
:101D90000020704741837047018370474FF6FF7101
:101DA00001600021017141718171C17170470000B2
:101DB00001460548006880B200EBC100001D034ADF
:101DC00032F8100080B27047505C00400060004064
:101DD00001460648006880B200EBC100801D044A3D
:101DE00032F81000C0F3090070470000505C00405A
:101DF0000060004001460548006880B200EBC10069
:101E0000034A32F8100080B270470000505C004076
:101E10000060004070B50948046D456D466E34445D
:101E200054B108220649204600F068F8042204490B
:101E30001031284600F062F870BD00000000F81F65
:101E40006205002000BFFEE74CF6CC400149086067
:101E500070470000003000404AF6AA20014908609F
:101E600070470000003000400149486070470000A2
:101E70000030004001498860704700000030004099
:101E800001490860704700000030004010B5184854
:101E90000068047A022C01D0042C05D1FFF760FB06
:101EA00013480068047A1CE0062C19D11048006819
:101EB000407805280ED10E480068007800F07F00B9
:101EC00040B90B490968C87801F0C0FA09490968A6
:101ED000086A80470849096888688047082400E044
:101EE0000824034909680C7200F006FC10BD0000CC
:101EF0003C050020480500204005002030B50B4679
:101F0000002100BF16E00A24B4EB107F05D930246D
:101F100004EB107403F8114005E0412404EB107445
:101F20000A3C03F81140000100254C00641C1D55BB
:101F30004C1CE1B29142E6DB30BD000000200120E4
:101F40000AE0411E064A515C21B1411E515C054A1E
:101F500022F81010411CC8B20328F2DD70470000BF
:101F6000080500200005002000B5D4480088401C6A
:101F7000D249088008460088032801DD0120088036
:101F8000CE480088CD4931F8100037287BD009DCD5
:101F9000A0F13000072834D2DFE800F015343F5AB2
:101FA0007B91AC0063286FD006DC38286DD03928CF
:101FB0006CD04C2825D159E1672868D0682867D0B3
:101FC0006F28F7D162E1BD490888082100F078F94F
:101FD000BA490888802100F073F9B84908880121BE
:101FE00000F06EF9B5490888402100F069F9B3495D
:101FF0000888042100F064F9B0490888022100F043
:102000005FF959E1AD490888802100F059F9AB49E1
:102010000888012100F054F94EE1A84908880821F8
:1020200000F04EF9A5490888802100F049F9A3493C
:1020300008884FF4805100F043F9A0490888042132
:1020400000F03EF99D490888402100F039F933E15C
:102050009A490888082100F033F9984908888021B6
:1020600000F02EF9954908884FF4805100F028F9C6
:1020700092490888012100F023F9904908884021FD
:1020800000F01EF918E155E0A9E063E087E0CDE03B
:10209000B6E08A490888022100F012F987490888C9
:1020A0004FF4805100F00CF984490888802100F039
:1020B00007F982490888012100F002F9FCE07F4914
:1020C0000888082100F0FCF87C490888022100F00B
:1020D000F7F87A4908884FF4805100F0F1F8774911
:1020E0000888012100F0ECF874490888402100F0CC
:1020F000E7F8E1E071490888082100F0E1F86F494C
:102100000888012100F0DCF86C490888402100F0C3
:10211000D7F86A490888042100F0D2F8674908888E
:10212000022100F0CDF8654908884FF4805100F095
:10213000C7F8C1E061490888082100F0C1F85F498B
:102140000888802100F0BCF85C490888012100F073
:10215000B7F8B1E059490888082100F0B1F85749AB
:102160000888802100F0ACF854490888012100F06B
:10217000A7F852490888402100F0A2F84F49088882
:10218000042100F09DF84D490888022100F098F8DC
:102190004A4908884FF4805100F092F88CE0474992
:1021A0000888082100F08CF844490888802100F054
:1021B00087F842490888012100F082F83F490888E1
:1021C000402100F07DF83D490888022100F078F8B0
:1021D0003A4908884FF4805100F072F86CE03749B2
:1021E00008884FF4805100F06BF8344908880421C6
:1021F00000F066F831490888402100F061F85BE0A2
:102200002E490888022100F05BF82C490888042137
:1022100000F056F8294908884FF4805100F050F832
:1022200026490888012100F04BF845E02349088839
:10223000082100F045F821490888022100F040F803
:102240001E4908884FF4805100F03AF81B4908886D
:10225000802100F035F819490888012100F030F894
:1022600016490888402100F02BF825E0134908881A
:10227000022100F025F811490888042100F020F817
:102280000E490888402100F01BF815E00B4908882A
:10229000042100F015F809490888402100F010F8E1
:1022A00006490888012100F00BF8044908884FF41A
:1022B000805100F005F800BF00BF00BD0005002000
:1022C000002945D0012804D0022806D003280ED1C9
:1022D00008E00422244B1A8009E04FF48062224B6C
:1022E0001A8004E04FF400621F4B1A8000BF00BF49
:1022F00008290FD006DC012914D002291ED0042998
:1023000025D117E0402911D0802907D0B1F5805F91
:102310001DD117E00822154B5A8318E08022134B79
:102320005A8314E00122104B1A8010E040220F4B18
:102330005A830CE004220D4B5A8308E002220A4B18
:102340001A8004E04FF48052074B1A8000BF0AE065
:10235000CC22064B1A8341F20302034B9B1E1A80C8
:1023600040F604421A8070471A04024000000240FE
:102370000548817A19B10521044A116002E0012162
:10238000024A116070470000102B00205806002000
:102390007CB502211C48FFF7F4FC05466846FFF7B0
:1023A000FDFC00208DF8040002208DF807000320BA
:1023B0008DF805000220009069461348FFF77CFC69
:1023C000002600E0761C42F210708642FAD3022109
:1023D0000D48FFF7D6FC044601208DF8070069463A
:1023E0000948FFF769FC1CB9012D01D102207CBD11
:1023F00014B90DB90020FAE7012C03D1012D01D148
:102400000120F4E70420F2E70000024000BFFEE7ED
:102410007047704770B5002100230F22C4781CB3A9
:10242000174C246804F4E064C4F5E064C4F30721A5
:10243000C1F10404E3B20A4144789C40E1B28478DB
:10244000144021430C07210E0E4C05786155047889
:1024500004F01F050124AC4005786D11AD0005F1B5
:10246000E025C5F8004109E0047804F01F050124C7
:10247000AC40054D0678761145F8264070BD000049
:102480000CED00E000E400E080E100E002490143DF
:10249000024A1160704700000000FA050CED00E0F0
:1024A00070B50226474800684478464800680078BE
:1024B00000F07F00002844D1092C03D101F040FB3B
:1024C00006465FE0052C14D13E480068C0787F289E
:1024D0000BDC3C480068807838B93A48006880884E
:1024E00018B938480068807A08B1082565E00026E8
:1024F00048E0032C0ED133480068C078012807D18A
:1025000030480068808818B901F03EFB064639E083
:10251000022637E0012C35D12A480068C07801280E
:102520000DD128480068808848B926480068407A5C
:1025300000F0200018B101F08FF9064622E00226D3
:1025400020E020480068007800F07F00012805D1D5
:102550000B2C17D101F094FB064613E019480068D4
:10256000007800F07F0002280BD1012C03D101F08C
:1025700073F9064606E0032C04D101F019FB064668
:1025800000E002264EB1E0B20F4A12685169884756
:102590000646032E01D109250FE00EB108250CE0F7
:1025A000062500210948006880B2801C084A42F8CC
:1025B000101030200749088000BF024909680D72D9
:1025C00070BD00003C05002040050020505C00402C
:1025D000006000404E05002010B511480068047AE4
:1025E000022C01D0042C01D1082412E0032C01D0CC
:1025F000052C05D1FFF714F809480068047A08E0B3
:10260000072C05D107490968C8688047082400E0FD
:102610000824034909680C7200F06EF810BD000030
:102620003C05002040050020F0B5561C7510074EF3
:1026300006EB41042B4605E034F8047B20F8017BCF
:10264000401C5B1E002BF7D1F0BD00000060004075
:1026500010B5024600200C4B186820F00300104310
:1026600018600A4B1B6843F00403084C23600129DF
:1026700001D130BF00E020BF044B1B6823F00403EE
:10268000024C236010BD00000070004010ED00E01F
:10269000014988627047000000000E420146002098
:1026A000034A52680A400AB1012000E00020704746
:1026B00000700040014908617047000000000E42B0
:1026C000014908627047000000000E42014948625B
:1026D0007047000000000E4201460020044A1068C6
:1026E00020F4C050084320F00C02014B1A607047E0
:1026F000007000407047000010B50D4890F82C1095
:10270000002000F0DDFE0B480068007A082805D1A3
:1027100040020949088010200849088005480068DF
:10272000007A092801D1012010BD0020FCE700003B
:10273000D40500203C0500204C0500204E0500205B
:1027400010B5012001F0F2FF01240B4804600020C5
:102750000A49088008460088074908600020091DCA
:1027600008604FF4E0500549088008460088024997
:102770000860002010BD0000405C004046050020BD
:102780001FB50120D649C87100208871D54908704D
:1027900000220421D44801F043FE00220121D24846
:1027A00001F0EBFE00220421CF4801F0E6FE0021FB
:1027B0004FF0804001F046FE4FF0804001F04EFEA9
:1027C0000021C94801F03EFEC74801F047FE002144
:1027D000C64801F037FEC54801F040FE0021C4485C
:1027E00001F030FEC24801F039FE0021C14801F07D
:1027F00029FEC04801F032FE0021012000F0D6FA87
:102800000021022000F0D2FA0021042000F0CEFACC
:102810000021042000F0EAFA0021082000F0E6FA86
:102820000021B548FEF75AF80021B348FEF761F8D9
:102830000020FEF739FA0021B048FEF795FD00218F
:102840001020FEF73DFCFEF74FFCAB48FEF768F8A2
:10285000AA48FEF795FD002000F01EFB00214FF076
:10286000807000F093FA00214FF4007000F0BEFA7F
:1028700000214FF0005000F099FA022000F0D6F944
:1028800000214FF4000000F091FA03F0C9FA012092
:10289000FFF71CFF0020FFF70DFF02A8FFF77EFAED
:1028A00003208DF80C0000208DF80F00012002900D
:1028B00002A99348FFF700FA0220029002A990486B
:1028C000FFF7FAF91020029002A98D48FFF7F4F9FA
:1028D0002020029002A98A48FFF7EEF94FF4807099
:1028E000029002A98648FFF7E7F94FF400700290C2
:1028F00002A98348FFF7E0F94FF48060029002A933
:102900007F48FFF7D9F94FF40060029002A97C4894
:10291000FFF7D2F94FF48050029002A97848FFF7F0
:10292000CBF94FF40040029002A97548FFF7C4F9B3
:102930004FF40040009000208DF806006846FFF735
:1029400069F902A8FFF72AFA03208DF80C0000208D
:102950008DF80F000820029002A96A48FFF7ACF931
:102960001020029002A96748FFF7A6F920200290E4
:1029700002A96448FFF7A0F98020029002A96148EB
:10298000FFF79AF94FF40070029002A95D48FFF733
:1029900093F94FF40050029002A95A48FFF78CF9BE
:1029A0004FF48040029002A95648FFF785F94FF492
:1029B0000040029002A95348FFF77EF902A8FFF7F2
:1029C000EDF903208DF80C0000208DF80D004FF676
:1029D000FF70029002A94C48FFF76EF900212020F9
:1029E00000F0D4F903208DF80C0000208DF80D00C4
:1029F0004FF6FF70029002A94448FFF75DF90021ED
:102A0000042000F0C3F90021012000F0EFF90021BB
:102A10000720FEF7BBFB02A8FFF7C0F900208DF8E6
:102A20000C008DF80D0002208DF80F00042002909C
:102A300002A93348FFF740F90820029002A9304864
:102A4000FFF73AF94020029002A92D48FFF734F928
:102A50008020029002A92A48FFF72EF90120029057
:102A600002A92848FFF728F90220029002A9254868
:102A7000FFF722F94FF48050029002A92148FFF796
:102A80001BF902A8FFF78AF900208DF80C008DF8D9
:102A90000D0001208DF80F000420029002A91948B2
:102AA000FFF70AF94FF48060029002A91548FFF77A
:102AB00003F94FF40060029002A91248FFF7FCF8F6
:102AC00000208DF80C008DF80D0002208DF80F000D
:102AD0004020029002A90B48FFF7EEF81FBD00004E
:102AE000FC060020140500200004004000080040FF
:102AF00000080140000C0140002401400860024031
:102B0000000002400004024000140240000802409D
:102B100010B500202E49C87101202E4948700020B0
:102B20002B49887002F074FE03F01CFA4FF4A06089
:102B3000FFF7ACFC1020FDF71DFE274908601420AC
:102B4000FDF718FE244908711820FDF713FE2249ED
:102B500048711C20FDF70EFE1F4988712020FDF7EB
:102B600009FE1D49C8712820FDF704FE1A490872A4
:102B70002C20FDF7FFFD184948723020FDF7FAFDC3
:102B8000154988723420FDF7F5FD1349C87240F2EB
:102B9000262002F0FBFD02F075FC02F07FFD02F042
:102BA000A5FD002000F042F8012000F03FF803F0FE
:102BB00063FA03F0D5FA03F057FB03F0C7FB03F009
:102BC00015FA00F0D5F8FEF7F5FEFEF721FF10BD6F
:102BD000FC060020E0060020F006002010B50446A8
:102BE0000F484078D8B1012C12D10D480078B0B907
:102BF0000C48007898B90A48047040F29A210A48B3
:102C000001F058FD01220421074801F009FC06E00B
:102C100000220421044801F003FC0148047010BDA7
:102C2000E0060020160500200004004010B586B024
:102C3000044634B1012C4DD0022C6CD0032C76D13B
:102C400076E00121084600F0D1F80121C80700F024
:102C5000ADF80121102000F0B9FB4FF4E010029014
:102C6000C00003904FF48050019000BF0820FFF790
:102C700015FD0128FAD101A8FEF784F800BF3B48F2
:102C8000006800F4E0100028F9D004A8FFF70CF861
:102C90004FF48000049000208DF8140008208DF877
:102CA000150001208DF8160004A8FEF7B3FF1620CA
:102CB0008DF8000002208DF802008DF8010001203F
:102CC0008DF803006846FFF7A5FB4FF48000FEF780
:102CD0008FFF48E00121C80700F068F84FF4E010CA
:102CE0000290C00003904FF48050019000BF082074
:102CF000FFF7D4FC0128FAD101A8FEF743F800BF82
:102D00001A48006800F4E0100028F9D04FF4800061
:102D1000FEF76EFF27E0FEF709F84FF48000FEF79C
:102D200067FF00214FF0004000F040F81BE019E081
:102D300004A8FEF7B9FF4FF48000049000208DF83E
:102D4000160004A8FEF766FF16208DF8000000208C
:102D50008DF803006846FFF75DFB4FF48000FEF737
:102D600047FF00E000BF00BF06B010BD007C004080
:102D700010B50221034801F09FFC2320024908609E
:102D800010BD0000000400402C05002029B1064AB7
:102D900012680243044B1A6004E0034A126882433B
:102DA000014B1A60704700001C38024029B1064AE6
:102DB00012680243044B1A6004E0034A126882431B
:102DC000014B1A60704700002438024029B1064ABE
:102DD00012680243044B1A6004E0034A12688243FB
:102DE000014B1A60704700001838024029B1064AAA
:102DF00012680243044B1A6004E0034A12688243DB
:102E0000014B1A60704700002038024029B1064A81
:102E100012680243044B1A6004E0034A12688243BA
:102E2000014B1A60704700001438024010B501468B
:102E30000022002300204A11012A02D1074C2368F6
:102E400002E0064C3434236801F01F020124944050
:102E50001C400CB1012000E0002010BD00380240F1
:102E60000248006800F00C0070470000083802407B
:102E700001460020034A106820F0F000084310606B
:102E800070470000083802400021024A11701146C4
:102E9000087070470238024001490860704700001E
:102EA0000000474201490860704700008006474221
:102EB00001490862704700000000474201460020B7
:102EC000034A106820F46040084310607047000017
:102ED0000438024001460020034A106820F4E060F4
:102EE0000843106070470000083802400146002087
:102EF000034A106820F4605040EAC1001060704737
:102F00000838024001490866704700000000474247
:102F100010B541EA02030343014C237010BD0000C9
:102F20000A3802400149086070470000D80647424D
:102F3000002100F44032B2F5403F08D10C4A11683C
:102F400021F0C04100F0C0421143094A1160084A13
:102F50003432126822F44032054B34331A601A4678
:102F6000126800F440331A43014B34331A6070473F
:102F7000003802400149086070470000DC06474203
:102F800001460020034A106820F003000843106047
:102F90007047000008380240014600BF080900EBF6
:102FA0008000420001F00F001044C0B2704701469B
:102FB000002204E0501CC2B2A1F10A00C1B20A29E9
:102FC000F8DA100741EA10607047000008B50121E7
:102FD0000807FFF7EBFE002000F0A6F841F21221EF
:102FE000884202D101201C4908700120FFF768FBCC
:102FF0000120FFF7BFFF0020FFF7BCFF0120FFF714
:1030000051FF00BF4120FFF711FF0028FAD04FF415
:103010000030FFF78DFF0120FFF784FF00F0FCF880
:103020007F200E4948604FF490708860002008604F
:10303000084600F047F800208DF8030001208DF8C5
:10304000000000208DF801008DF802006946012083
:1030500000F07AF808BD000027050020A406002033
:1030600008B50022009200200021104A126802F0E8
:103070004002CAB9421E0D4B1A6000BF0B4A1268CB
:1030800002F04001009A521C0092009AB2F5005FD3
:1030900001D00029F2D0054A126802F040020AB1BC
:1030A000012002E0002000E0012008BD0C280040C3
:1030B0000348006820F08000014908607047000064
:1030C0000C28004030B504460025CA201549086088
:1030D00053200860FFF7C4FF00B91DE011481C38F9
:1030E000006820F040000F491C390860084600685D
:1030F000216808430B491C3908600A491439A06843
:10310000086008460068A18840EA01400549143972
:103110000860FFF7CDFF0125FF200249086028461F
:1031200030BD00002428004008B501460020009072
:1031300004480090009800EB81000090009800681F
:1031400008BD0000502800402DE9F04105460C461E
:10315000002600274DB92E48006800F0400000B15D
:1031600002E00020E07000BF0DE02948006800F098
:10317000400020B12078FFF70FFF064602E0002054
:10318000E07000BF00BF55B120780004617840EACC
:103190000120A1780843E17840EA014611E0207857
:1031A000FFF705FF4FEA00486078FFF700FF48EAA5
:1031B0000028A078FFF7FBFE48EA0008E07848EA1C
:1031C0000046CA2012491C31086053200860FFF7EE
:1031D00047FF08B9002713E00E4830400C49083972
:1031E0000860FFF765FF0A48006800F0200030B96A
:1031F00000F012F808B9002702E0012700E00127DB
:10320000FF2003491C3108603846BDE8F08100000A
:10321000082800407F7F7F0008B500220092002030
:103220000021CA22134B1A6053221A60114A183A1D
:10323000126822F0A0020F4B183B1A6000BF0D4A23
:10324000183A126802F02001009A521C0092009A6B
:10325000B2F5004F01D00029F1D0064A183A1268A1
:1032600002F020020AB1012000E00020FF22014B01
:103270001A6008BD2428004008B500220092044AC4
:103280000092009A02EB80020092009A116008BD41
:103290005028004070B50546072D01D02E48057016
:1032A0002D48007808284ED2DFE800F004111A20DB
:1032B0002B384E4F2948006828B900F053F80620F3
:1032C0002549087002E005202349087041E000F01C
:1032D00049F804202049087001202049086038E09E
:1032E00002201D4948700320087032E01A484078D7
:1032F000401E194948700846407808B904200870F3
:1033000027E01748006884B244F0100414480460B1
:103310000520114908700A2048701AE00E484078CC
:10332000401E0D4948700846407858B90C4800685E
:1033300084B224F010040A480460062008700020BB
:103340000649086005E000BF00BF0620024908707A
:1033500000BF00BF70BD00005D06002060060020B9
:10336000405C004010B50748006884B224F00404B3
:1033700004480460FEF7FCFF4FF43F400149086039
:1033800010BD0000405C00407047000030B50022D6
:103390008B071C0F0F2303FA04F20B4B8C1053F80E
:1033A00024309343084C8D1044F8253023468C106C
:1033B00053F824308C07240F00FA04F42343024C02
:1033C0008D1044F8253030BD0800014010B50022B2
:1033D000C20F20F0004071B12AB10E4B1B680343AD
:1033E0000C4C236015E00B4B1B1D1B680343094C61
:1033F000241D23600DE02AB1064B1B688343054C56
:10340000236006E0034B1B1D1B688343014C241DF6
:10341000236010BD087C004030B10749496841F085
:103420000101054A516005E00349496821F00101A5
:10343000014A516070470000000001404FF6F871EA
:103440000140014A11607047505C004030B50146B0
:103450000F4B1A78002014E003060E4C04EB935334
:10346000D3F8003C48F68F74234048F2800423438D
:10347000C4B223430406074D05EB9454C4F8003C42
:10348000401C9042E8D341F08003034C236030BDE0
:10349000D0050020005000404C5C004010B54A10A0
:1034A0005300054A126892B202EBC002121D034C8F
:1034B00044F8123010BD0000505C00400060004035
:1034C00010B502460F48006880B200EBC200801DB4
:1034D0000D4C04EB40033E290BDD481101F01F04A5
:1034E0000CB9441EA0B24FF4004444EA80241C608E
:1034F00007E0481001F001040CB1441CA0B28402A2
:103500001C6010BD505C00400060004030B50E4CA7
:1035100004EB8003D3F8003C4BF68F7403EA0402FB
:1035200001F480530BB182F4805201F400530BB1CB
:1035300082F4005242F4004343F08003024D05EB55
:103540008004C4F8003C30BD0050004010B50B4B67
:1035500003EB8002D2F8002C4BF68F7302EA0301D2
:1035600081F4805181F4005141F4004242F0800224
:10357000024C04EB8003C3F8002C10BD0050004047
:1035800010B54A105200044B1B689BB203EBC003FA
:10359000024C44F8132010BD505C00400060004015
:1035A000044A126892B202EBC002921C024B43F82A
:1035B00012107047505C00400060004030B50E4C67
:1035C00004EB8003D3F8003C48F6BF7403EA04021E
:1035D00001F010030BB182F0100201F020030BB1D7
:1035E00082F0200242F4004343F08003024D05EBD9
:1035F0008004C4F8003C30BD0050004010B50B4BB7
:1036000003EB8002D2F8002C48F6BF7302EA0301F4
:1036100081F0100181F0200141F4004242F080026B
:10362000024C04EB8003C3F8002C10BD0050004096
:1036300010B5074B03EB8002D2F8002C48F68F132D
:103640001A400A43024C04EB8003C3F8002C10BD5F
:10365000005000400CB50020019000903E480068EA
:1036600040F480303C49086000BF3B48006800F4EB
:10367000003000900198401C0190009818B9019802
:10368000B0F5A04FF1D13448006800F4003010B11B
:103690000120009001E0002000900098012859D1FD
:1036A0002E48006840F004002C4908600846006875
:1036B00040F0020008600846006840F00100086021
:1036C00025482430006840F08050234924310860A8
:1036D000C8142349086000BF2148406800F010006A
:1036E0000028F9D11C48083000681B4908310860DF
:1036F00008460068086008460068086008460068D8
:1037000020F47D0008600846006840F4110008605D
:103710001148006840F080700F49086000BF0E48F3
:10372000006800F000700028F9D00B4808300068ED
:1037300020F003000849083108600846006840F09E
:103740000300086000BF04480830006800F00C0067
:103750000C28F8D10CBD000000380240003C0240AB
:103760000070004010B501210846FFF73FFB4FF401
:103770008020FEF73DFA4FF48020054908600820BC
:103780004871012088710846FEF744FA10BD000018
:103790005405002010B50121C805FFF707FB10BD37
:1037A00038B501242948006880B2001D284931F845
:1037B000100080B201EB4000009026480068007ABB
:1037C000092832D0009800782249096808700098CA
:1037D000401C0090009800781E49096848700098C5
:1037E000401C0090009800EB44000090009931F8D4
:1037F000020B0091FDF76CFA1649096848800098A1
:1038000000EB44000090009931F8020B0091FDF7A5
:103810005FFA104909688880009800EB4400009026
:10382000009800880B490968C88001200949096887
:10383000087208480068C08810B9FEF731FE01E040
:10384000FDF74CFFFEF758FF38BD0000505C00400C
:10385000006000403C0500202DE9F0475448006816
:10386000007800F07F08B8F1000F0AD150480068D6
:10387000407A00F0DF004E49096848720020BDE838
:10388000F087B8F1020F7CD149480068408818B928
:1038900047480068007908B10220F0E7DFF814918A
:1038A00043480068477927F080052C464048006867
:1038B000407900F0800038B13F4901EB8400D0F836
:1038C000000C00F0300606E03B4901EB8400D0F824
:1038D000000C00F4405699F80000A84204D91EB12B
:1038E00033480068807A08B90220C8E707F08000F2
:1038F00080B1314901EB8400D0F8000C00F03000B9
:1039000010284BD1E0B2FDF7ADFBE0B23021FFF75C
:1039100055FE43E0284901EB8400D0F8000C00F488
:103920004050B0F5805F39D1E4B9244A92F82C10A8
:10393000E0B2FFF7C5FD204A02EB8401D1F8001C7C
:103940004BF68F7201EA020080F4805080F4005040
:1039500040F4004141F08001174B03EB8402C2F8B0
:10396000001C1BE0E0B2FDF763FB134A02EB84018D
:10397000D1F8001C4BF68F7201EA020080F48050EF
:1039800000E011E080F4005040F4004141F080017B
:10399000094B03EB8402C2F8001C00BF0849096808
:1039A0004869804700206AE700BF022067E70000FF
:1039B0003C050020D005002000500040D405002028
:1039C0004805002010B504462CB9012006490968B5
:1039D0000882002010BD0549096808688047024830
:1039E00000680A30F6E700003C050020480500208A
:1039F00010B5024606480068438A32B98888C01A62
:103A0000034C24682082002010BD08681844FBE79E
:103A10003C05002010B504462CB901200649096870
:103A20000882002010BD054909688868804702485F
:103A300000680C30F6E700003C0500204805002037
:103A400010B504462CB902203949096808820020C3
:103A500010BD00203749088035480068007800F024
:103A60007F0018BB32490968487A00F0200131B163
:103A70003049097841F002012E4A117005E02D49C4
:103A8000097801F0FD012B4A117000F0400131B1BD
:103A90002849097841F00101264A117005E02549BD
:103AA000097801F0FE01234A11703AE020480068CD
:103AB000007800F07F00012801D11E48C8E71C48AB
:103AC0000068007800F07F00022828D1184A1268A8
:103AD000517901F00F0001F080027AB1164B03EB2F
:103AE0008002D2F8002C02F03002102A16D1114ABE
:103AF000127842F001020F4B1A700FE00E4B03EBED
:103B00008002D2F8002C02F44052B2F5805F05D159
:103B1000084A127842F00102064B1A7001E00020B8
:103B200096E70649096808698047024890E700005F
:103B30003C050020340500200050004048050020CE
:103B400010B50E480068C0780D494978884213DCEA
:103B50000A480068807878B908480068808858B9B1
:103B600006480068C07805490968887205490968EF
:103B700048688047002010BD0220FCE73C0500207B
:103B8000D00500204805002010B507480068407A9D
:103B900040F0200004490968487204490968C8696E
:103BA0008047002010BD00003C0500204805002093
:103BB0002DE9F0412E480068467926F080073C4602
:103BC0002B480068407900F0800038B1294901EBAA
:103BD0008400D0F8000C00F0300506E0254901EB28
:103BE0008400D0F8000C00F4405523480078A0422F
:103BF00008D91F480068408820B91DB11C480068DA
:103C0000807A10B90220BDE8F08106F08000A0B1F2
:103C1000184A02EB8401D1F8001C48F6BF7201EA91
:103C2000020080F0100040F4004141F08001114B8F
:103C300003EB8402C2F8001C14E00E4A02EB84017C
:103C4000D1F8001C4BF68F7201EA020080F480501C
:103C500040F4004141F08001064B03EB8402C2F8BE
:103C6000001C00BF05490968886980470020CAE731
:103C70003C05002000500040D005002048050020F1
:103C800010B5174B1B68D978154B1B685879154B25
:103C90001B689A699047044611480068807AE8B129
:103CA0003CB90F480068007918B90D480068807861
:103CB00008B1022010BD8CB90B490968C86880475B
:103CC00007480068407906490968C87204480068D6
:103CD000C0780349096808730020EBE70220E9E790
:103CE0003C050020400500204805002070470000EA
:103CF00002480068401C014908607047E004002049
:103D000070B5002200200021002400232D4D2D68D5
:103D100005F00C0232B1042A10D0082A12D00C2A65
:103D200036D113E0274D2D1F2D68C5F342335D1C9E
:103D30000126AE40F503244E356035E0234D224E7A
:103D4000356031E0224D204E35602DE01D4D2D684F
:103D500005F470101B4D2D6805F440011D4D05EB59
:103D600090452878012505EB9151164D2D6805F4F5
:103D7000803434B9154D4543B5FBF1F5124E35602D
:103D800005E0134D4543B5FBF1F50F4E35600BE0F3
:103D90000C4D2D1F2D68C5F342335D1C0126AE402E
:103DA000F503094E356000BF00BF064D2D68C5F311
:103DB0000315094E725D044D2D68D540024E3560E5
:103DC00070BD000008380240A40400200024F40064
:103DD00000127A00A8040020B104002010B5154894
:103DE000006840F480701349086012480830006889
:103DF000114908400F49083108600E4800680F4912
:103E000008400C4908600846006820F480200860DB
:103E100008480830006820F47D0006490831086031
:103E20000020091D0860FFF715FC4FF000600449F1
:103E3000086010BD003802400CC0FF88FEFFFEEE97
:103E400008ED00E010B50121114800F085FBF0B14C
:103E500001210F4800F0F3FA0220FCF76DFF58B97A
:103E60000C48407810B10120FEF7B8FE0A480068FF
:103E7000401C094908600AE00648407810B100205B
:103E8000FEF7ACFE04480068401E0349086010BD00
:103E9000000C0140E0060020B42A002010B50421E7
:103EA000080700F059FB40B10421080700F0C7FAE9
:103EB000084908880021FEF703FA0121880700F06D
:103EC0004BFB30B10121880700F0B9FA012002490B
:103ED000087010BD000500201405002010B5012158
:103EE000294800F039FB20B30121274800F0A7FA48
:103EF00025482030008800F0100414B10120234927
:103F0000087023484078A0B12148007890B9214832
:103F10000068002808DD00201E49086000220421F6
:103F2000194800F07DFA10E01A480068401C194951
:103F300008600AE00020174908600220FCF7FCFE38
:103F4000012802D10020FEF749FE02210E4800F0B0
:103F500003FBC0B102210C4800F071FA0B48007855
:103F600088B10D480068401C0B490860084840783B
:103F700030B10748007830B900200449087002E0E9
:103F800000200249087010BD000400401605002002
:103F9000E0060020C80400206027002010B50121A1
:103FA0000F4800F0D9FAD0B101210D4800F047FACE
:103FB0000C48006802280DDD00200A490860002234
:103FC0000121074800F0D9FA00220C21044800F032
:103FD00027FA04E003480068401C0249086010BD4D
:103FE00000080040D004002070B500250121EC48F5
:103FF00000F0B2FA002875D00121E94800F01FFA5C
:10400000E848C07820B1E8480068401CE6490860EC
:10401000E4480078002859D1E248C078002855D0FB
:10402000E2480068B0F5167F39DAE0480068401CC5
:10403000DE490860084600680A2190FBF1F201FBA6
:104040001200002842D100241BE000214FF08040E4
:1040500000F0F8F90421080700F0F1F901218807C0
:1040600000F0EDF9D24908880021FEF729F908216E
:104070000120FEF725F901220C21CE4800F0D0F9ED
:10408000641CB4F57A7FE0D3C94908880021FEF7A3
:1040900017F901221146C74800F06FFA16E0C1482F
:1040A000007998B908210120FEF70AF90020BE49DD
:1040B0000860002404E00020BF4941F82400641C8B
:1040C000B4F5006FF7D30120B64908714FF4807141
:1040D000BA48FDF756FE30B9B248007A401CB149E3
:1040E000087203E05AE10020AE490872AD48007A38
:1040F000142802DD0120AB49C8710020B0490860D6
:10410000B0490860B049886014242DE0601EAF49B2
:1041100051F8200041F82400601EAD4951F82000FC
:1041200041F82400601EA94951F82000A4490968FB
:104130000844A3490860601EA54951F82000A14920
:10414000096808449F490860601EA24951F8200090
:1041500041F824009C488168601E9E4A52F8200065
:10416000084499498860641E002CCFD194480068A7
:1041700040089349086093480068400891490860E6
:1041800000209249086092490860924908608E4870
:10419000806841F29411884204DC8B48806849426F
:1041A00088421CDA8848C068FA2802D9FA20864971
:1041B000C8608548C06832280BD200208249C86098
:1041C0000846407890BB012048700020FEF72EFD85
:1041D0002CE07D48C068401E7B49C86026E07A48D4
:1041E000C068401C7849C8600846C068FA281DD9D4
:1041F00008464078012819D17748C07A012815D19E
:104200000320FEF713FD6F4800686F4948606D4852
:1042100000687249086000206B494870012204213F
:104220006F4800F0FDF80020674908706648407844
:1042300000284FD167484068664989684518002DB5
:1042400009DD6848006895FBF0F064490968084496
:104250006549086009E06348006895FBF0F05F4934
:10426000096801EB400060490860574840686430C5
:104270005D490968884204D25348406864305A490D
:10428000086051484068A2280BD94F4840686438FC
:1042900055490968884204D94B48406864385249F6
:1042A0000860514800683E2802DA3E204E49086006
:1042B0004D4800684D4991FBF0F4B4F5803F01D3BF
:1042C0004FF6FF742146464800F0F4F93D48006877
:1042D000424908604648006819282EDB00204449FE
:1042E00008600120434908702E48007820B1304909
:1042F00008880021FDF7E4FF3F480088B0F5AA7F59
:1043000020DA2848807818B901202649887019E0F9
:1043100041F212210020FEF7AFFF45F25550FDF7A4
:10432000AFFD0020FDF7A0FD0220FDF7A3FDFDF786
:1043300093FDFDF789FD00BFFEE72D480068401C96
:104340002B49086017488078B8B91D480068B0F557
:104350007A7F0BD31A4800684FF47A71B0FBF1F6FC
:10436000324626A1264800F0C3FE0AE0144823A1E5
:104370000268234800F0BCFE03E022A1204800F0C0
:10438000B7FEFDF7DBFD1048407838B10220FCF79E
:10439000D3FC012802D10020FEF720FC70BD0000F4
:1043A00000080140FC06002020050020DC0400205D
:1043B000000500200008004008070020000402401B
:1043C000100500201C050020E00600200C2700201E
:1043D00060270020B42A0020F0060020CC04002032
:1043E000000400402C0500203005002000093D009D
:1043F000D4040020280500201A050020253375006C
:10440000080500204C6F200021B1028842F0800294
:10441000028004E002884FF67F731A4002807047E2
:1044200030B5002301248C40A3B2048C9C43048447
:10443000048C02FA01F5ADB22C43048430BDCA43AA
:104440000282704721B1028842F00102028004E03A
:1044500002884FF6FE731A400280704710B504467A
:10446000B4F1804F08D101210846FEF7AFFC0021CE
:104470000120FEF7ABFC5EE02F48844208D1012109
:104480000220FEF7A3FC00210220FEF79FFC52E071
:104490002A48844208D101210420FEF797FC00211C
:1044A0000420FEF793FC46E02548844208D1012110
:1044B0000820FEF78BFC00210820FEF787FC3AE07D
:1044C0002048844208D101211020FEF77FFC002102
:1044D0001020FEF77BFC2EE01B48844208D101210E
:1044E0002020FEF773FC00212020FEF76FFC22E065
:1044F0001648844208D101210420FEF787FC0021E0
:104500000420FEF783FC16E01148844208D1012103
:104510000820FEF77BFC00210820FEF777FC0AE06C
:104520000C48844207D101211020FEF76FFC0021C6
:104530001020FEF76BFC10BD000400400008004096
:10454000000C004000100040001400400008014032
:10455000000C01400010014030B50246002000234D
:104560000024158A05EA0103958905EA010413B1BF
:104570000CB1012000E0002030BD1AB183890B434B
:10458000838102E083898B438381704730B50023A8
:104590000022048C4FF6FE752C400484028C038BA1
:1045A0004FF68F742340AC1E23400C8823436C1EAF
:1045B00022400C8922434C8822434C684463038385
:1045C000028430BD0A460021018B4FF6F773194073
:1045D00011430183704730B500230022048C4FF64D
:1045E000EF752C400484028C038B48F6FF74234043
:1045F0000C884FF6FF7505EA042423434FF6DF7459
:1046000022400C8905EA041422434C8805EA04146C
:1046100022434C6884630383028430BD0A46002130
:10462000018B4FF2FF7319404FF6FF7303EA022329
:1046300019430183704730B500230022048C4EF6E5
:10464000FF752C400484028C838B48F6FF74234052
:104650000C884FF6FF7505EA042423434DF6FF74DA
:1046600022400C8905EA043422434C8805EA0434CC
:1046700022434C6804648383028430BD0A460021CF
:10468000818B4FF2FF7319404FF6FF7303EA022349
:10469000194381837047002101804180416001817D
:1046A000704782884FF68F731A40828082880A434F
:1046B00082807047C1627047816370470022028820
:1046C000B0F1804F08D0104B984205D00F4B984264
:1046D00002D00F4B984204D14FF68F731A404B888B
:1046E0001A430C4B984207D00B4B984204D04FF61C
:1046F000FF431A400B891A4302804B68C3620B8840
:1047000003850123838270470004004000080040B5
:10471000000C004000100040001400404FF0FF313A
:1047200041600021018001814180704710B504463D
:104730001CB10120FEF770FE02E00020FEF76CFEC7
:1047400010BD10B54FF48020FDF752FA10BD0000E7
:1047500010B50A480A490860022009680872094829
:104760000949086009480A49086007490968086852
:104770008047054909684868804710BD102B002014
:104780003C050020D4050020400500200406002040
:104790004805002008B54FF4A060FDF777FE14200F
:1047A0008DF8000002208DF8010000208DF8020035
:1047B00001208DF803006846FDF72CFE2A208DF8B5
:1047C000000001208DF801008DF803006846FDF718
:1047D00021FE08BD10B588B000246848006868490B
:1047E00008800846008800F400706649098808407F
:1047F00040B14FF6FF506149086063480078401CA3
:10480000614908705E48008800F400405D490988ED
:10481000084008B1FCF7C8FA5948008800F48060E5
:1048200058490988084030B14FF6FF3053490860B5
:104830005649486880475248008800F40050514962
:104840000988084018B14DF6FF704C4908604C4883
:10485000008800F480504B490988084030B14EF67A
:10486000FF70464908600020FEF714FD44480088A8
:1048700000F4006043490988084060B1444800786A
:1048800010B1FFF733FA02E00220FEF703FD4FF20A
:10489000FF703A4908603A48008800F4807039494E
:1048A00009880840002866D04FF6FF603349086049
:1048B000081D006800F40040002856D03548006804
:1048C000401C3449086008460068032850D92B482A
:1048D000001F006800F00800002849D12748001F89
:1048E000006880B22C490860002408E02B4901EBE5
:1048F0008400D0F8000C80B24DF82400641C082C11
:10490000F4D32548006840F00100234908600846B8
:10491000006880B21949091F08601F48006820F02C
:1049200001001D4908600846006880B21349091F4C
:10493000086000BF1148006800F480600028F9D0CA
:104940004FF6FF300D490860002408E05DF82400B0
:1049500080B2124A02EB8401C1F8000C641C082CDE
:10496000F4D300200B49086002E0002009490860E8
:104970000720FEF78FFC08B010BD0000445C00402B
:10498000800500204605002082050020D405002077
:104990005C060020840500208805002000500040AF
:1049A00010B5FFF717FF10BD0020064908604FF44F
:1049B0003F4005490880084600880249091F0860F1
:1049C00000207047445C00404605002010B50021DF
:1049D0004FF40000FEF7EAF9002012490870C87091
:1049E00000F084FE0020FEF721F90120FEF71EF9F9
:1049F00001210D48FFF726FD01218807FFF722FD61
:104A000004210807FFF71BFD01218807FFF717FDA9
:104A1000064908880021FDF753FC012001498871EF
:104A200010BD0000FC060020000C01400005002025
:104A300010B5012009490870FEF794FEFFF760F9F0
:104A4000FEF7A8FEFFF7A6FEFFF782FE04484068C7
:104A500040F001000249486010BD0000FC06002043
:104A6000000001402DE9F0410024DE4800680528DF
:104A70007ED1FCF733F9DC480068002878D000BF0D
:104A8000A6E1402C01D3BDE8F081D848005D05289F
:104A900046D006DC01280BD0022823D0042868D198
:104AA0002CE0072866D039287ED04028F7D158E17D
:104AB000E520CF490870CFA000794870CDA040799B
:104AC0008870CCA00078C870CAA040780871C9A0CE
:104AD00080784871C7A0807A88710720C84908602B
:104AE000641C5DE10322C749042001F04DF9C4496B
:104AF00008600846006800B9641C51E1002504E024
:104B00000020C14941F825006D1CB5F5006FF7D3B1
:104B10000020BE490860BA48006800B9641C3FE143
:104B20000620B3490870BA48007BBA49C979401ACF
:104B3000AF494870B74800788870B6480088000AC6
:104B4000C870B4480068000C0871B3480078487118
:104B5000B1480088000A8871B0480078C871AF4831
:104B60000088000A0872AD480068000C487202E034
:104B700036E113E13BE0A9480068000E8872A348C3
:104B800000680A21B0FBF1F69949CE72300A087329
:104B9000300C4873300E8873A1480078C873A04861
:104BA0000088000A087400E0D6E09D480068000C08
:104BB00048749B480068000E88749648407AC87410
:104BC0009448407908759348807948759148C07930
:104BD00088759048807AC8758E48C07A0876914862
:104BE000007848761A2086490860641CD8E004F1F1
:104BF0000A007D49096888427ED87C49601C085CAF
:104C0000844908600846794A0168A01C105C01EBE1
:104C100000208049086008460168E01C105C01EB38
:104C200000407C490860E41C084601681020FBF73E
:104C3000A6FDFEF79DF800F065FD6C49601C085C60
:104C400074494872641C0846417A2C20FBF797FD92
:104C50006649601C085C6F494871641C08464179CC
:104C60001820FBF78CFD6149601C085C694988715C
:104C7000641C084681791C20FBF781FD01F0FCF9DA
:104C80006948007888B100214FF08040FFF7DAFBD7
:104C900004210807FFF7D3FB01218807FFF7CFFBAB
:104CA000624908880021FDF70BFB5049601C085C35
:104CB0005849C871641C0846C1792020FBF75FFD84
:104CC000641C4A49601C085C5249C872641C08464E
:104CD000C07A38B900205649C860012048700020C9
:104CE000FDF7A4FF4B48C17A3420FBF748FD3F494C
:104CF000601C085C474900E02BE08872641C084691
:104D0000817A3020FBF73BFD4248807A20B10128B0
:104D100009D0022815D10DE000230122194645488B
:104D2000FBF78AFE14E001231A4600214148FBF7F5
:104D300083FE0DE00223012200213E48FBF77CFEAA
:104D400006E00323012200213A48FBF775FE00BF6D
:104D500001E02548046823E000202A490880641CFB
:104D60001EE0002504E00020274941F825006D1CC5
:104D7000B5F5006FF7D3002024490860FBF704FD68
:104D80004FF48270FBF7F6FC204908604FF4847002
:104D9000FBF7F0FC1E49C860641C01E0641C00BF06
:104DA00000BF1748006898B1002700E07F1C224828
:104DB0000068012803D04FF6FF708742F6D31048F1
:104DC0000068C1B20A48FBF795FF00200C49086053
:104DD00005480068A0423FF654AE00200249086032
:104DE00000BF50E6580600207C0500202C2B002038
:104DF000640600204A756C20313220323031370091
:104E00005C05002024050020080700202005002064
:104E1000C0060020F00600201A0500201005002022
:104E20001C05002026050020FC06002000050020AF
:104E3000E006002000240140E404002000BFFEE75B
:104E4000F0B5144604F1010C4FEA6C07DFF824C0FA
:104E50000CEB41033D460AE00678401C90F800C088
:104E600046EA0C2223F8022B9B1C401C6D1E002DD1
:104E7000F2D1F0BD0060004070B504460025212C41
:104E800008D112480068007800F07F0021280ED178
:104E90000F4D0CE0202C0AD10C480068007800F07F
:104EA0007F00212800D10B4D20200B4908700DB93F
:104EB000022070BD05480068856100210348006834
:104EC00041820020A8470020F3E700003C050020B5
:104ED000054F000895500008C405002010B5044691
:104EE00002492046FEF784FD10BD00003006002078
:104EF00010B5044602492046FEF77AFD10BD0000B9
:104F000028060020014629B90820034A12681082A9
:104F1000002070470148FCE73C050020C805002040
:104F200070B5054606480068C478042C01DD0020F1
:104F300070BD044800EBC4012846FEF759FDF7E7B1
:104F40003C050020380600200246002901DD022031
:104F50007047012A01DD0220FAE70020F8E700008F
:104F6000014608480068007800F07F00212807D13A
:104F7000022901D100207047222901D10020FAE73F
:104F80000220F8E73C05002010B5002034490968EC
:104F900088723448C0793249096848720020304923
:104FA0000968C872FEF74AFA4FF400710020FEF754
:104FB0003FFB10210020FEF701FB40210020FEF7FF
:104FC0006DFA80210020FEF7DBFA0020FCF764F880
:104FD000254890F82C100020FEF772FA0020FEF70A
:104FE000B5FA00210120FEF723FBC0210120FEF7C6
:104FF000C7FA20210120FEF7E1FA00210120FEF787
:1050000085FA4FF4C0610220FEF712FB4FF4807165
:105010000220FEF7B5FA00210220FEF777FA2021E0
:105020000220FEF7CBFA00210320FEF701FB4FF42C
:1050300088710320FEF732FA40210320FEF740FA80
:105040004FF440510320FEF761FA00210320FEF7E0
:10505000B5FA0020FEF7FAF901200449086010BDF6
:105060003C050020EE630008D4050020580600200F
:105070000348817A11B10521024A1160704700008E
:10508000102B0020580600200420014908607047BA
:1050900058060020014629B90820034A12681082E8
:1050A000002070470148FCE73C050020C8050020AF
:1050B00003480078202802D1002001490870704779
:1050C000C40500207047000010B5FCF7A3FE0020C7
:1050D000054909688872FDF733FBFFF765FC00207E
:1050E0000249086010BD00003C0500205806002061
:1050F0000FB4084B10B504A902AA039800F01CF8DD
:10510000044602A9002000F0B8F9204610BC5DF862
:1051100014FB00007B54000802E008C8121F08C1FD
:10512000002AFAD170477047002001E001C1121F28
:10513000002AFBD1704700002DE9FF4F8BB0884655
:105140000546002606E025280BD0DDE90D12904724
:105150006D1C761C28780028F5D10FB03046BDE8CC
:10516000F08F0024A146A2460122AE4900E004438C
:1051700015F8013F203B02FA03F00842F7D12878E6
:105180002A2810D06FF02F022878A0F130010929C9
:1051900015D809EB890102EB410144F0020400EB50
:1051A00001096D1CF0E758F8041B5FEA010903D5FB
:1051B00044F40054C9F1000944F002046D1C28783D
:1051C0002E2817D115F8010F44F004042A280ED018
:1051D0006FF02F022878A0F1300109290AD80AEBD4
:1051E0008A0102EB410100EB010A6D1CF2E758F85D
:1051F00004AB6D1C28786C280FD006DC4C2817D027
:1052000068280DD06A2814D104E0742810D07A28B8
:105210000FD10DE044F400140AE044F4801401E0DE
:1052200044F440146978814202D104F580146D1C65
:105230006D1C2878692865D006DC00288DD063288D
:1052400027D0642806D15DE06E2808D073282AD0C4
:10525000752877D0DDE90D129047761CE0E0C4F3A5
:105260000250022809D003280DD0D8F800100428D5
:105270000DD00E6008F10408D2E0D8F80010F21743
:10528000C1E90062F6E7D8F800100E80F2E70E7070
:10529000F0E718F8041B8DF8001000208DF80100CD
:1052A000EB46012003E058F804BB4FF0FF306107E4
:1052B0004FF0000701D40AE07F1C57450DDA874202
:1052C000FADB1BF807100029F6D106E07F1C8742A5
:1052D000FCDB1BF807100029F8D1DDE90D23A9EB51
:1052E00007008146214600F0B1F83044C61904E0B9
:1052F000DDE90D121BF8010B90477F1EF8D2214605
:10530000484688E058F8040BC4F302514FF00A0BEA
:10531000032900D100B2042900D140B2002802DAEA
:1053200040422D2102E0210505D52B218DF82410C6
:10533000012104E006E0E10710D02021F6E708AFE4
:10534000089113E058F8040BC4F302514FF00A0B14
:10535000032900D180B2042900D1C0B20021EEE7B8
:105360005946FBF701F9303107F8011D0028F7D144
:10537000ADEB070000F1200B600702D524F4803468
:1053800001E04FF0010ADA4502DDAAEB0B0000E074
:105390000020824600EB0B0108980144A9EB0100B4
:1053A0000A90E00306D4DDE90D2321460A9800F0B7
:1053B0004DF806444FF0000908E009A911F809006A
:1053C000DDE90D12904709F10109761C089989451C
:1053D000F3DBE0030CD5DDE90D2321460A9800F04C
:1053E00035F8064404E0DDE90D1230209047761CC4
:1053F000BAF10001AAF1010AF5DC05E0DDE90D12C0
:1054000017F8010B9047761CBBF10001ABF1010BC3
:10541000F4DC0A982146DDE90D2300F005F8064486
:105420006D1C97E6092801002DE9F041044600258E
:105430001E461746880404D405E039462020B047AC
:105440006D1C641EF9D52846BDE8F0812DE9F041B8
:10545000044600251E469046C80301D5302700E0CB
:105460002027880404D505E041463846B0476D1C26
:10547000641EF9D52846BDE8F0810A68531C0B600C
:105480001070704700B593B001210806FDF77EFC4F
:105490007D48FBF775FF01A8FCF755F87B480190A4
:1054A0007B480290002003904FF4C07004900020CD
:1054B00005908020069040000790800008902020F2
:1054C000099000020A9000200B9001A96E48FCF799
:1054D0001CF80B208DF8300002208DF831008DF87B
:1054E000320001208DF833000CA8FCF793FF012255
:1054F00002216548FCF700F80120FDF7CDFC00BF54
:105500002120FDF793FC0028FAD001214802FDF785
:105510006DFC00215D485838FBF7D0F95D48006804
:1055200040F400005B4908600DA8FBF7AFFB0020CA
:105530000D9001208DF838008DF839004FF0C060D3
:1055400010904FF000500F900020119003208DF824
:1055500048000DA94D485838FBF744FA10214B4834
:105560005838FBF7EDF900224FF4403147485838DE
:10557000FBF7D7FA0120FBF797FB00BF0820FDF7E8
:105580008DF80028FAD00723012211213F4858380E
:10559000FBF7D0FA0723022210213C485838FBF7CA
:1055A000C9FA07230322132138485838FBF7C2FAF7
:1055B00012208DF8300001208DF833008DF8310075
:1055C00000208DF832000CA8FCF724FF012240F2E5
:1055D00007412E485838FBF7F5F900212B48583879
:1055E000FBF793FA2C48807A20B101280AD00228D0
:1055F00018D10FE000230122194624485838FBF740
:105600001BFA17E001231A46002120485838FBF7FF
:1056100013FA0FE00223012200211C485838FBF73F
:105620000BFA07E003230122002118485838FBF742
:1056300003FA00BF00BF4FF4702114485838FBF73D
:1056400087F94FF4801111485838FBF789F9012187
:105650000D48FBF789FE01210C485838FBF754F937
:1056600001210A485838FBF744F901210748583806
:10567000FBF734F900BF402104485838FBF778F9AC
:105680000028F8D013B000BD086002405824014043
:10569000B427002004270140F00600201FB5012197
:1056A0004807FDF783FB6846FBF76AFD3C20009046
:1056B000002001900220039069461020FBF720FD96
:1056C00001211020FBF7FCFC0A210020FBF732FD32
:1056D0001FBD10B500211020FBF7F2FCFBF704FD05
:1056E00000214FF00050FDF761FB10BD10B5FFF732
:1056F000D5FF01214807FDF759FB01211020FBF7D9
:10570000DFFC10BD2DE9F05F19490868FAF7C0FE0B
:105710008346FAF7EFFE8046164A174BFAF740FE2B
:1057200006464FF06632154BFAF7C8FD0446FAF705
:10573000F4FE82465046FAF7DDFE0446104A114B4D
:10574000FAF72EFE0646FAF7BCFE0F49C861FFF7CE
:10575000C0FFFFF7CBFF0C48808B81B20020FBF726
:10576000E9FC01211020FBF7F5FCBDE8F09F0000EB
:10577000F00600209A999999198DB34066661440F5
:10578000515E9183053C483FC006002070B503463A
:105790001B4800684FF47A72B0FBF2F1481EB0F17A
:1057A000807F01D301201BE0481E4FF0E0225061B2
:1057B00050170F22002807DA1407260E114C00F0AC
:1057C0000F052D1F665503E01407250E0E4C2554BA
:1057D00000BF00204FF0E022906107201061002000
:1057E00008B100BFFEE700200849086000BF074875
:1057F00000689842FBD300204FF0E021086170BDA3
:10580000A404002018ED00E000E400E0E004002023
:105810001CB501210846FDF7B9FA01210220FDF768
:10582000B5FA01210420FDF7B1FA6846FCF7B6FA93
:105830004020009001208DF8040000208DF8060023
:1058400003208DF8050000208DF807006946954873
:10585000FCF732FA40219348FCF79EFA6846FCF7C1
:105860009DFACC20009001208DF804008DF80600F0
:1058700003208DF8050000208DF8070069468A484E
:10588000FCF71AFA6846FCF789FA40F604400090E3
:1058900001208DF8040000208DF8060003208DF80B
:1058A000050000208DF8070069467E48FCF704FAE1
:1058B0006846FCF773FA41F20300009001208DF86E
:1058C00004008DF8060003208DF8050000208DF8F7
:1058D000070069467348FCF7EFF908217248FCF7A6
:1058E00059FA80217048FCF755FA40216E48FCF7C0
:1058F00051FA04216C48FCF74DFA01216948FCF784
:1059000049FA02216748FCF745FA4FF4805165488F
:10591000FCF740FA04216348FCF73EFA4FF480613B
:105920006048FCF739FA4FF400615E48FCF734FA3E
:105930006846FCF733FA2020009002208DF804001E
:1059400000208DF8060003208DF8050002208DF858
:10595000070069465348FCF7AFF902220521514878
:10596000FCF7ECF96846FCF719FA102000900120CA
:105970008DF8040000208DF8060003208DF8050046
:1059800000208DF8070069464748FCF795F96846FE
:10599000FCF704FA4FF40070009002208DF8040028
:1059A00000208DF8060003208DF8050002208DF8F8
:1059B000070069463B48FCF77FF902220921394874
:1059C000FCF7BCF96846FCF7E9F9102000900320C9
:1059D0008DF805008DF8040000208DF80700694659
:1059E0003048FCF769F96846FCF7D8F901200090C7
:1059F00003208DF805008DF8040000208DF80700C5
:105A000069462948FCF758F96846FCF7C7F94FF48E
:105A10000050009003208DF8040000208DF807004E
:105A200069462048FCF748F96846FCF7B7F94FF497
:105A30008040009001208DF804008DF806000020C1
:105A40008DF805008DF8070069461648FCF734F913
:105A50004FF480411348FCF79DF96846FCF79EF926
:105A600000208DF8040003208DF8050001208DF83A
:105A700007000220009069460B48FCF71DF96846B4
:105A8000FCF78CF900208DF8040003208DF8050048
:105A900001208DF807000002009069460148FCF7DC
:105AA0000BF91CBD00040240000002400024FDF779
:105AB0008DFA00210846FDF7DFFBA6480078002894
:105AC0005AD0FFF7A5FEFBF7A3FF43E0FCF758FE13
:105AD00000240120FCF7DCFD01210846FCF7B8FD9D
