:020000040800F2
:10000000682F00200901000809240008351E000897
:1000100005240008990C0008194E00080000000093
:10002000000000000000000000000000793300081C
:100030006519000800000000ED260008E13C0008FA
:100040002301000823010008230100082301000800
:1000500023010008230100082301000823010008F0
:100060002301000823010008230100089D11000856
:1000700023010008230100082301000823010008D0
:10008000230100082301000891070008230100084C
:100090005149000823010008350D0008511A0008D5
:1000A00023010008C53F0008353E00082301000871
:1000B0008D3E0008CD3E0008793F0008230100086E
:1000C0002301000823010008230100082301000880
:1000D0002301000823010008230100082301000870
:1000E0002301000823010008F3460008230100084B
:1000F00023010008DFF80CD000F0C6FA00480047E2
:10010000715A0008682F00200648804706480047BB
:10011000FEE7FEE7FEE7FEE7FEE7FEE7FEE7FEE7B7
:10012000FEE7FEE7CD3D0008F5000008F0B480EAE8
:100130000102D40F4200B2EB410F02D20246084640
:1001400011464A0042D0C30DDDB2C1F3C752AD1A09
:10015000202D35DAC1F3160141F4000204B15242F8
:10016000C5F1200602FA06F12A411044B3EBD05F34
:1001700023D0C4B1012DA0EBC35009DCF0BC4FF07B
:10018000004202EAC352DBB200F5000000F0F1B910
:10019000400000F1807000EBC350A0F1807040EA95
:1001A000D170490009E0490841EAC071A0EBC35091
:1001B00000F50000400800EBC350F0BC00F0D0B9DF
:1001C0006142012202EB4101001BF6E7F0BC7047DF
:1001D00081F00041AAE780F00040A7E780EA010231
:1001E00010B502F00043400022D04A001FD0010E9B
:1001F00001EB1261C0F35600C2F3560240F4000056
:1002000042F40002A0FB022000047F39140400D055
:10021000401C50EA124001D44000491EC2B20C06F4
:1002200004EBD010401C4008802A02D003E00020DC
:1002300010BD20F00100002900DA0020184310BD95
:1002400030B480EA010202F0004530F0004221F0B3
:10025000004013D090B1C30DD40DC2F31601C0F30A
:100260001600E41A41F4000140F400027D3491428A
:1002700001D3641C00E04900002C02DA30BC0020ED
:1002800070474FF400000023914201D3891A0343C1
:1002900040084FEA4101F7D151B1914202D14FF0EC
:1002A000004105E002D24FF0010101E06FF00101D1
:1002B00003EBC450284430BC00F052B92DE9FE4F86
:1002C00081EA030404F0004421F0004100944FF05F
:1002D000000B23F0004350EA01045ED052EA03040D
:1002E0005BD0C3F30A54C1F30A552C44A4F2F3348F
:1002F0000194A0FB0254C1F3130141F48011C3F334
:10030000130343F4801301FB024400FB034E840AF1
:10031000970A44EA815447EA8357A4FB0768029589
:100320008D0A05FB07854FEA932C04FB0C54270527
:10033000029D4FEA065847EA1637B5EB08056EEB03
:10034000070C870E920E47EA811742EA8312A7FB39
:100350000201B6EB0B0164EB00042B0D43EA0C33F6
:100360005E1844EB1C50DA465146E7FB0201C5F328
:1003700013044FEA0B3343EA14534FEA0432019C4F
:1003800043EA0603A4F10C040294009CCDE900B4F6
:1003900000F02CF903B0BDE8F08F00200146F9E72A
:1003A0002DE9F04D81EA030404F0004B21F00045F3
:1003B00014464FF0000A23F0004150EA050220D015
:1003C00054EA01021DD0C5F30A570246C5F31303D0
:1003D000C1F31300C1F30A5640F4801543F48013AF
:1003E000A7EB0608101BD64608F2FD3873EB050094
:1003F00002D308F1010801E092185B41B8F1000F47
:1004000003DA00200146BDE8F08D00204FF4801192
:10041000064684460EE0171B73EB050705D3121B37
:1004200063EB050306434CEA010C49084FEA300030
:1004300092185B4150EA0107EDD152EA030012D055
:1004400082EA040083EA0501084305D0101BAB4192
:1004500006D20122002306E000224FF0004302E012
:100460006FF0010253101AEB06004CEB085110EB31
:100470000A0041EB0B01BDE8F04D00F0A8B8C10F38
:1004800080EAE0700844CA079623002100F071B8A2
:1004900096230022114600F06CB820F00040C10DF8
:1004A000C0F3160040F400007F2901DA00207047F5
:1004B000962903DCC1F19601C840704796398840FF
:1004C000704700F0004230F000400AD0C10D01F545
:1004D0006071C0F3160042EA0151C208400711439F
:1004E000704700200146704701F0004330B421F00E
:1004F000004150EA010206D00A0DA2F56072C1F374
:100500001301002A02DC30BC00207047440F44EA8B
:10051000C104C100E01830BC00EBC25000F020B8AC
:10052000002801DBC0F10040002901DBC1F10041DE
:100530008142704730B50B4601460020202201243D
:1005400009E021FA02F59D4205D303FA02F5491BA1
:1005500004FA02F52844151EA2F10102F1DC30BDB7
:100560000029A8BF7047401C490008BF20F00100C7
:10057000704710B4B0FA80FC00FA0CF050EA0104A5
:1005800004BF10BC704749B1CCF1200421FA04F437
:1005900011FA0CF118BF012121430843A3EB0C0110
:1005A000CB1D4FEA00614FEA102042BF002010BC73
:1005B000704700EBC35010440029A4BF10BC704723
:1005C000401C490008BF20F0010010BC704710B566
:1005D000141E73F1000408DA401C41F10001921866
:1005E0005B411A4301D120F0010010BD2DE9F04D0F
:1005F00092469B4611B1B1FA81F202E0B0FA80F264
:100600002032904600F052F804460F4640EA0A00B5
:1006100041EA0B0153465A46084313D0114653EAA8
:10062000010019D0C8F14002504600F04EF80546CE
:100630000E4650465946424600F038F8084305D069
:10064000012004E020463946BDE8F08D0020054336
:1006500046EAE0762C4337430A986305E40AA0EBA8
:1006600008000022FD0A44EA47540A3002D500205F
:100670000146E9E7010510196941DDE9084500195E
:100680006941BDE8F04DA2E7064C074D06E0E06881
:1006900040F0010394E8070098471034AC42F6D3C9
:1006A000FFF72CFD5464000884640008202A04DB52
:1006B000203A00FA02F1002070479140C2F1200375
:1006C00020FA03F3194390407047202A04DB203AB4
:1006D00021FA02F00021704721FA02F3D040C2F162
:1006E0002002914008431946704770B58C1810F8E5
:1006F000015B15F0070301D110F8013B2A1106D167
:1007000010F8012B03E010F8016B01F8016B5B1E80
:10071000F9D12B0705D40023521E0DD401F8013B5B
:10072000FAE710F8013BCB1A921C03E013F8015BC7
:1007300001F8015B521EF9D5A142D8D3002070BD4B
:1007400040F2AD2CC2F2000C604740F2E52CC2F240
:10075000000C604740F25D3CC2F2000C604740F282
:100760001D4CC2F2000C604740F2993CC2F2000CF2
:10077000604740F2D51CC2F2000C604740F2051CF5
:10078000C2F2000C604740F2B11CC2F2000C60479C
:1007900010B540F20741324800F0D9F800285CD08B
:1007A00040F207412E4800F07AF818212C4800F05A
:1007B000E1F804462B48007800284ED12A480078FA
:1007C00000284AD12948407AB4EB400F00DA10BD26
:1007D0002748C07870B16010264951F82000401CAD
:1007E0006110244A42F8210023480068401C224935
:1007F000086032E01020214908831F480068401C2F
:100800001D490860194840791D49098888421CDA49
:1008100016484079002818DD15488079A8B10020D5
:10082000174908801748008840F0010015490880E2
:1008300001220C211348143803F0C8FD012211468F
:100840001048143803F06FFE04E00D480088401C87
:100850000B49088010200949488300BFB7E7000012
:1008600000240140D806002012050020E8060020E0
:10087000F4060020000700200427002000000240AA
:10088000C40400201408004021B1826842F0040230
:10089000826003E0826822F00402826070470022D6
:1008A0000A12D3430360704721B1826842F001020B
:1008B000826003E0826822F001028260704721B109
:1008C000826842F48072826003E0826822F480725F
:1008D0008260704721B1826842F40072826003E056
:1008E000826822F4007282607047000010B50446EE
:1008F0000548844207D10121401502F07FFA00210A
:10090000601502F07BFA10BD002401400A46002168
:10091000816821F0F0011143816070470A4600218F
:10092000816821F470211143816070470A460021DB
:10093000816821F440111143816070470246002014
:1009400013680B400BB1012000E00020704770B528
:1009500002460020002300240B0A556801268E4021
:1009600005EA060415681D4015B10CB1012000E030
:10097000002070BD08B5024600200090009201F1F1
:100980003000009B184400900098006880B208BDB9
:1009900010B50B460021D9B2012404FA01F11AB1B5
:1009A00044680C43446002E044688C43446010BDDA
:1009B00030B50246002000235068104C20400D79CD
:1009C0000C6844EA05242043506090680C4C204099
:1009D000D1E903542C438D682C434D7944EA4504F6
:1009E00020439060106B20F0F8700C7D641EE4B220
:1009F000234340EA0350106330BD0000FFFEFFFCBC
:100A0000FDF7FFC0F0B50446154600200022002681
:100A10001D2911DDE06DA1F11E0707EB470C07272B
:100A200007FA0CF29043A1F11E0707EB470703FA00
:100A300007F21043E06534E0132911DDE068A1F10D
:100A4000140707EB470C072707FA0CF29043A1F1B4
:100A5000140707EB470703FA07F21043E06020E0B2
:100A6000092911DD2069A1F10A0707EB470C0727C7
:100A700007FA0CF29043A1F10A0707EB470703FAC4
:100A800007F2104320610CE0606901EB410C07277D
:100A900007FA0CF2904301EB410703FA07F2104307
:100AA0006061606CC0F30156EF1C06F1010CA7EB0E
:100AB0000C0707EB870C1F2707FA0CF29043EF1C7B
:100AC00006F1010CA7EB0C0707EB870701FA07F209
:100AD00010436064F0BD10B50A4600210023416C4C
:100AE00021F44011531E41EA0351416410BD1AB173
:100AF00043680B43436002E043688B4343607047A5
:100B0000F0B504460D46002000211D2D11DDE06DDD
:100B1000A5F11E0606EB4607072606FA07F18843ED
:100B2000A5F11E0606EB460603FA06F10843E0654A
:100B300034E0132D11DDE068A5F1140606EB46073D
:100B4000072606FA07F18843A5F1140606EB4606C8
:100B500003FA06F10843E06020E0092D11DD206969
:100B6000A5F10A0606EB4607072606FA07F18843B1
:100B7000A5F10A0606EB460603FA06F108432061D2
:100B80000CE0606905EB4507072606FA07F1884384
:100B900005EB450603FA06F108436061072A0FDA00
:100BA000206C561E06EB86071F2606FA07F18843BF
:100BB000561E06EB860605FA06F1084320644AE055
:100BC0000D2A0FDAE06BD61F06EB86071F2606FA02
:100BD00007F18843D61F06EB860605FA06F108439F
:100BE000E06338E0132A11DAA06BA2F10D0606EBE0
:100BF00086071F2606FA07F18843A2F10D0606EBC9
:100C0000860605FA06F10843A06324E0192A11DAE2
:100C1000606BA2F1130606EB86071F2606FA07F1A2
:100C20008843A2F1130606EB860605FA06F108438F
:100C3000606310E0206BA2F1190606EB86071F2601
:100C400006FA07F18843A2F1190606EB860605FAB3
:100C500006F108432063F0BD00210160017141717C
:100C600081604FF04071C160002101610121017577
:100C70007047000030B10749096841F40001054A96
:100C8000116005E00349096821F40001014A11607F
:100C9000704700000427014000BFFEE70146CAB2CA
:100CA0000B1243EA0220704710B500200349086088
:100CB000032002F043FC012010BD0000E4040020EA
:100CC00070B505460C46402C0FDA00200949086033
:100CD0002246C021284604F0A1F82146012002F056
:100CE00057FC012002F082FC01E0002070BD0120D1
:100CF000FCE70000E0040020002001490860704784
:100D0000007C004001460020012908D1084A1268F1
:100D100002F080020AB1012009E0002007E0044A45
:100D2000126802F400520AB1012000E0002070476E
:100D3000007C004010B54FF4800000F057FF30B148
:100D40004FF4800000F04CFF002001F04DFF10BD7B
:100D50000021064A1168064A1140D0E900231A43CF
:100D600083681A431143014A11607047007C0040B8
:100D7000FFEF03FF08B50020009022E197480088AC
:100D800000F00F00964908700846007800287CD1D2
:100D900094480068944908800846008800F03000B4
:100DA000924908809048008800F440508E4908809D
:100DB0008C4909684BF6BF7201EA020080F40050CA
:100DC00080F0200040F4004141F08001854A11602C
:100DD0008248008800F0100090BB1046006848F67A
:100DE0000F7108401146086001F048F87D49096814
:100DF0004BF6BF7201EA02007B49098801F4805179
:100E000009B180F480507849098801F4005109B192
:100E100080F400507549098801F0100109B180F093
:100E200010007249098801F0200109B180F020000A
:100E300081B241F4004141F080016A4A116008BD6D
:100E4000FFE76848006880B20090BDF8000000F439
:100E50000060B0B363480068C0F30E0048F68F71BD
:100E600008406049086002F093FC5E4909684BF64F
:100E7000BF7201EA02005C49098801F4805109B19E
:100E800080F480505849098800E056E001F4005190
:100E900009B180F400505549098801F0100109B1E9
:100EA00080F010005149098801F0200109B180F05B
:100EB000200081B241F4004141F08001494A1160B3
:100EC000BDE7FFE7BDF8000000F40040002878D03F
:100ED00044480068C0F30E0048F68F71084041494D
:100EE000086001F075FB3F4909684BF6BF7201EAE3
:100EF00002003D49098801F4805109B180F4805015
:100F00003949098801F4005109B180F4005037498A
:100F1000098801F0100109B180F0100033490988F7
:100F200001F0200109B180F0200081B241F40041BC
:100F300041F080012B4A116081E7294800782C4953
:100F400001EB8000D0F8000C80B20090BDF80000EA
:100F500000F40040C0B12248007801EB8000D0F8D6
:100F6000000CC0F30E0048F68F7108401C49097848
:100F70001F4A02EB8101C1F8000C19490978491E8A
:100F80001C4A52F821008047BDF8000000F08000A4
:100F9000B8B113480078164901EB8000D0F8000C76
:100FA00048F60F7108400E490978114A02EB810199
:100FB000C1F8000C0A490978491E0F4A52F821006D
:100FC000804708484430006880B20449088000F433
:100FD000004000287FF4D2AE00BF30E77805002043
:100FE00030050020005C004044050020460500203C
:100FF00000500040A0050020840500200B4A02EBB1
:101000008001D1F8001C01F4804171B102EB800134
:10101000D1F8001C48F68F7211404CF28002114347
:10102000024B03EB8002C2F8001C704700500040E6
:101030000B4A02EB8001D1F8001C01F0400171B1B4
:1010400002EB8001D1F8001C48F68F72114048F283
:10105000C0021143024B03EB8002C2F8001C704730
:1010600000500040084A02EB8001D1F8001C48F60D
:101070008F62114048F280021143034B03EB800260
:10108000C2F8001C704700000050004039B1084A07
:101090001268012383401A43054B1A6006E0044A94
:1010A0001268012383409A43014B1A607047000085
:1010B0000074004010B50121480701F07FFE0021B7
:1010C0004FF0005001F07AFE10BD000008B5014657
:1010D00000200090054800902C2000EB9100009A21
:1010E000104400900098006880B208BD0074004071
:1010F00030B5002200230A4C226840F6FE7484407A
:10110000A243D1E900452C438D682C43CD6844EAC5
:10111000050303FA00F42243014C226030BD0000B5
:101120000074004008B500220092054A009200F1C8
:101130001402009B1A440092009A116008BD00003E
:101140000074004010B541B1084A12680409012337
:10115000A3401A43054B1A6007E0044A12680409C9
:101160000123A3409A43014B1A6010BD0474004050
:101170000021016041608160C160704729B1064A69
:1011800052680243044B5A6004E0034A52688243A7
:10119000014B5A6070470000002004E02DE9F04F39
:1011A00087B0022000F08AF900287DD0012000F0ED
:1011B000C5F800205749086048608860002419E09D
:1011C00054488068544931F81410084451498860E3
:1011D0000846514A4168601C32F8100008444D49E5
:1011E000486008460168A01C32F8100008444949CC
:1011F0000860E41CB4F5C07FE2DB46488068C009A3
:101200004449886008464068C0094860084600684C
:10121000C00908608868FFF73BF90190FFF751F9B2
:1012200002460B46CDE902013C483D49FFF7B8F8BC
:10123000CDE90401FFF758F9064636498869314679
:10124000FFF76EF903D03348866104F049FA31495B
:101250000868FFF71DF902902E4881690298FEF791
:10126000BDFF30490390FEF7B9FF4FF08041049075
:10127000FEF7B4FF0590FFF710F92B4908802B48C3
:1012800005882A487A38B0F87E70B0F878902149FD
:101290008868FFF7FDF804904846FFF7F9F80390D7
:1012A0000499FEF7CDFF00E030E021490590FEF7FC
:1012B00095FF824617494868FFF7EAF851460390C0
:1012C000FEF78CFF1A490490FEF7BAFF0590FFF76E
:1012D000E4F81FFA80F8A8EB0500FFF7D0F80490B7
:1012E000781BFFF7CCF8014602901248FEF7A8FFE2
:1012F00003900499FEF772FF0F490590FEF716FF61
:1013000083465846FFF7C9F80249C86007B0BDE8F0
:10131000F08F0000B8060020AC2700202FDD240647
:101320008195F33F0000C842160500207A00F81F9F
:10133000000040400000A0420000F04100F0805159
:1013400011B90349486001E0024908607047000094
:10135000006002400464024021B1026842F00102D0
:10136000026004E002684FF6FE731A4002607047A4
:1013700001684FF6FE72114001600021016041607A
:101380008160C1604B49884208D14A49083949689F
:1013900041F00F01474A083A51608AE0454914314B
:1013A000884208D143490839496841F0F001414A6F
:1013B000083A51607DE03F492831884208D13D49D3
:1013C0000839496841F470613A4A083A516070E05E
:1013D00038493C31884208D136490839496841F4D6
:1013E0007041344A083A516063E0324950318842D2
:1013F00008D130490839496841F470212D4A083A2A
:10140000516056E02B496431884208D12949083996
:10141000496841F47001274A083A516049E025497A
:101420007831884208D123490839496841F0706110
:10143000204A083A51603CE01F49884206D1011F0A
:10144000096841F00F01021F116032E01A4914319E
:10145000884208D11849091F096841F0F001164A6D
:10146000121F116025E014492831884208D1124921
:10147000091F096841F470610F4A121F116018E0DA
:101480000D493C31884208D10B49091F096841F4D4
:101490007041094A121F11600BE007495031884220
:1014A00007D10549091F096841F47021024A121F3A
:1014B0001160704708600240086402400146002045
:1014C000002201F0805313B9054B1A6801E0054B67
:1014D0001A6802EA01030BB1012000E00020704706
:1014E00000600240006402401AB103680B430360CD
:1014F00002E003688B430360704710B50022026866
:1015000047F6F0739A430C6A8B6823430C692343B4
:101510004C6923438C692343CC6923434C6A23439E
:101520008C6A23431A430260CB6843600B68836074
:101530004B68C36010BD0021016041608160C160E3
:10154000016141618161C1610162416281627047F3
:101550002DE9F0472848006800F110052E8826483C
:101560000068077AD6B9042F18D1244800780128DA
:101570000FD100212248006880B2801C214A42F825
:10158000101030202049088000BF00201B4908703F
:1015900003E0072710201C49088027E0AC88A642FA
:1015A00001D8042000E002200746B44200D93446A6
:1015B000A0B2A96888478046002000F013FC81464D
:1015C000A2B24946404603F029FCA1B2002001F036
:1015D000DFFF2888001B288068882044688030202E
:1015E0000949088000020949088000BF02490968CA
:1015F0000F72BDE8F0870000340500202E050020A2
:10160000505C00400060004046050020440500207A
:101610002DE9F0412848006800F110042688A068F0
:10162000C0B1BEB1A588B54200D93546A8B2A168FF
:10163000884707462088401B2080608828446080B7
:10164000002000F0ADFB8046AAB24146384600F0CB
:10165000E7FF00BF208850B14FF440501749088081
:101660000021084601F094FF3020154908802088A9
:10167000A188884204DB03200F490968087218E03A
:101680002088002804DD05200B490968087210E055
:10169000208870B9062008490968087200210948A5
:1016A000006880B2801C084A42F8101030200449BB
:1016B0000880BDE8F08100003405002044050020CA
:1016C00046050020505C0040006000402DE9F84FC6
:1016D0009B48006845780027BA46062D1BD19848DC
:1016E0000068007800F07F00002813D19449096851
:1016F0008878012803D193490968CF690AE0022854
:1017000003D1904909680F6A04E0032802D18D498A
:1017100009684F6A94E0002D64D1894800684088C8
:1017200000285FD186480068C08802285AD18448C2
:1017300000680079002855D181480068007800F0E1
:101740007F0028B97E480068808808B97E4F77E01E
:101750007B480068007800F07F00012810D17849AC
:1017600009684879774909688A6900219047002803
:1017700066D173480068807A002861D0724F5FE0BC
:101780006F480068007800F07F00022858D16C484C
:101790000068407900F00F0669480068407900F061
:1017A000700967480068407900F0800038B16749E7
:1017B00001EB8600D0F8000C00F0300806E0634929
:1017C00001EB8600D0F8000C00F440586048007827
:1017D000B04235D9B9F1000F32D1B8F1000F2FD096
:1017E000594F2DE0082D07D155480068007800F0CA
:1017F0007F0028BB574F23E00A2D21D150480068B5
:10180000007800F07F0001281AD14D480068807AE6
:10181000B0B14B480068408890B9494800680079E9
:1018200070B947480068C088012809D1444909684F
:101830004879444909688A690021904700B9464FB0
:1018400057B13F480068A0F812A03D480068876182
:101850000020B84700240FE0394A12685078394A0E
:101860001268116988470446032C05D109203449C0
:1018700009680872BDE8F88F31480068008A4FF6A1
:10188000FF71884204D109202D4909680872F1E7E7
:10189000022C03D02A480068008A20B90820284971
:1018A00009680872E6E726480068007800F08000C2
:1018B000E0B323480068C088009021480068008A8F
:1018C0000099884204D91E4900980968088223E0DB
:1018D0001B480068008A1A490968C98888421BDACF
:1018E00017480068008A1749096891F82C10884247
:1018F00003DA0020194908700EE011480068008AD8
:101900001049096891F82C1090FBF1F201FB1200CC
:1019100010B90120114908700A48006890F82C108D
:10192000074800688182FFF713FE07E0FFE7032006
:1019300003490968087200030949088000BF99E754
:101940003405002038050020313A000800500040DE
:10195000C8050020B5390008053A00082E0500200A
:1019600044050020704700000120014908607047CD
:10197000E004002010B5012007490860032000F0B2
:101980001FFA064908600846008882B24FF4887141
:10199000034800F045FE10BDE4040020740500205B
:1019A000242B00201FB50121084601F0E7F9002093
:1019B0008DF80C008DF80F004FF4004002900320CA
:1019C0008DF80D0002A90D4800F06EF901210846BE
:1019D00001F004FA0F21002001F0D0FC4FF4004088
:1019E000009000208DF8040008208DF805000120EB
:1019F0008DF80600684600F005F91FBD00000240A2
:101A00000EB50121084601F0E9F90821012001F095
:101A1000B5FC4FF48070009000208DF804000C207D
:101A20008DF8050001208DF80600684600F0EAF800
:101A300017208DF8080002208DF809008DF80A00A3
:101A400001208DF80B0002A800F0E0FC0EBD0000A4
:101A500070B5002500244FF4807000F0C7F800280E
:101A60007DD05748007800284CD15649088800217D
:101A700000F01EFC00BF12E009E04EF66020844238
:101A800004D901220C21504802F0A0FC641C4FF440
:101A900080714E4800F06DF90028EED06D1C4C4866
:101AA0008542E9D301221146474802F03CFD4EF63B
:101AB000602084427ED94748007820B30120454900
:101AC000C87003F001FE002001F0B6F8012001F01B
:101AD000B3F80121404802F08BFC00214FF0804018
:101AE00002F086FC0421080702F07FFC0121880730
:101AF00002F07BFC33490888002100F0D9FB00206C
:101B00003449887156E03348C07848BB01203149D8
:101B1000C8700020314908602E49087103F0D4FDD7
:101B2000002001F089F8012001F086F801212A48FF
:101B300002F05EFC00214FF0804002F059FC0421CD
:101B4000080702F052FC0121880702F04EFC1D49F3
:101B50000888002100F0ACFB0821012001E02DE005
:101B600005E000F0A5FB00201A49887122E0002062
:101B70001849C87003F0A8FD002001F05DF80120AD
:101B800001F05AF80121144802F032FC01218807C3
:101B900002F02EFC0421080702F027FC012188072F
:101BA00002F023FC07490888002100F081FB012096
:101BB000084988714FF4807000F012F870BD000081
:101BC00023050020FC04002000080040000402401F
:101BD000A0860100F4060020000C0140D80400207B
:101BE00001490860704700001404014001460020CC
:101BF000034A12680A400AB1012000E00020704741
:101C000014040140002123498279002A3AD00A466F
:101C1000126803689A430B461A600A1D126803682B
:101C20009A430B1D1A60027911440A6803681A432B
:101C30000A60184A0832126803689A43154B083341
:101C40001A601A1D126803689A43124B0C331A600B
:101C50004279102A0ED11A1F126803681A430D4BDD
:101C600008331A601A1D126803681A43094B0C33B3
:101C70001A600DE00749427911440A6803681A4363
:101C80000A6005E0027911440A6803689A430A6011
:101C900070470000000401400021016001710C2127
:101CA0004171002181717047F0B502460B46002159
:101CB00000240025002000BF35E0012606FA01F4CB
:101CC0001E6806EA0405A5422CD110684F000326C1
:101CD000BE40B0431E794F00BE40304310601E79B5
:101CE000012E02D01E79022E12D190684F000326D9
:101CF000BE40B0435E794F00BE4030439060908854
:101D000001268E40B0439E798E40B6B2304390801B
:101D1000D0684F000326BE40B043DE794F00BE407E
:101D20003043D060491C1029C7D3F0BDF0B5002363
:101D300000244D07ED0E02FA05F3CE1000F1200548
:101D400055F826504E07F70E0F26BE40B543CF106C
:101D500000F1200646F82750CE1000F1200555F876
:101D6000265045EA0304CE1000F1200545F8264030
:101D7000F0BD02460020138A0B400BB1012000E0A9
:101D80000020704741837047018370474FF6FF7111
:101D900001600021017141718171C17170470000C2
:101DA00001460548006880B200EBC100001D034AEF
:101DB00032F8100080B27047505C00400060004074
:101DC00001460648006880B200EBC100801D044A4D
:101DD00032F81000C0F3090070470000505C00406A
:101DE0000060004001460548006880B200EBC10079
:101DF000034A32F8100080B270470000505C004087
:101E00000060004070B50948046D456D466E34446D
:101E100054B108220649204600F068F8042204491B
:101E20001031284600F062F870BD00000000F81F75
:101E30005A05002000BFFEE74CF6CC40014908607F
:101E400070470000003000404AF6AA2001490860AF
:101E500070470000003000400149486070470000B2
:101E600000300040014988607047000000300040A9
:101E700001490860704700000030004010B5184864
:101E80000068047A022C01D0042C05D1FFF760FB16
:101E900013480068047A1CE0062C19D11048006829
:101EA000407805280ED10E480068007800F07F00C9
:101EB00040B90B490968C87801F0C0FA09490968B6
:101EC000086A80470849096888688047082400E054
:101ED0000824034909680C7200F00AFC10BD0000D8
:101EE00034050020400500203805002030B50B46A1
:101EF000002100BF16E00A24B4EB107F05D930247E
:101F000004EB107403F8114005E0412404EB107455
:101F10000A3C03F81140000100254C00641C1D55CB
:101F20004C1CE1B29142E6DB30BD000000200120F4
:101F30000AE0411E064A515C21B1411E515C054A2E
:101F400022F81010411CC8B20328F2DD70470000CF
:101F500004050020FC04002000B5D4480088401C83
:101F6000D249088008460088032801DD0120088046
:101F7000CE480088CD4931F8100037287BD009DCE5
:101F8000A0F13000072834D2DFE800F015343F5AC2
:101F90007B91AC0063286FD006DC38286DD03928DF
:101FA0006CD04C2825D159E1672868D0682867D0C3
:101FB0006F28F7D162E1BD490888082100F078F95F
:101FC000BA490888802100F073F9B84908880121CE
:101FD00000F06EF9B5490888402100F069F9B3496D
:101FE0000888042100F064F9B0490888022100F053
:101FF0005FF959E1AD490888802100F059F9AB49F2
:102000000888012100F054F94EE1A8490888082108
:1020100000F04EF9A5490888802100F049F9A3494C
:1020200008884FF4805100F043F9A0490888042142
:1020300000F03EF99D490888402100F039F933E16C
:102040009A490888082100F033F9984908888021C6
:1020500000F02EF9954908884FF4805100F028F9D6
:1020600092490888012100F023F99049088840210D
:1020700000F01EF918E155E0A9E063E087E0CDE04B
:10208000B6E08A490888022100F012F987490888D9
:102090004FF4805100F00CF984490888802100F049
:1020A00007F982490888012100F002F9FCE07F4924
:1020B0000888082100F0FCF87C490888022100F01B
:1020C000F7F87A4908884FF4805100F0F1F8774921
:1020D0000888012100F0ECF874490888402100F0DC
:1020E000E7F8E1E071490888082100F0E1F86F495C
:1020F0000888012100F0DCF86C490888402100F0D4
:10210000D7F86A490888042100F0D2F8674908889E
:10211000022100F0CDF8654908884FF4805100F0A5
:10212000C7F8C1E061490888082100F0C1F85F499B
:102130000888802100F0BCF85C490888012100F083
:10214000B7F8B1E059490888082100F0B1F85749BB
:102150000888802100F0ACF854490888012100F07B
:10216000A7F852490888402100F0A2F84F49088892
:10217000042100F09DF84D490888022100F098F8EC
:102180004A4908884FF4805100F092F88CE04749A2
:102190000888082100F08CF844490888802100F064
:1021A00087F842490888012100F082F83F490888F1
:1021B000402100F07DF83D490888022100F078F8C0
:1021C0003A4908884FF4805100F072F86CE03749C2
:1021D00008884FF4805100F06BF8344908880421D6
:1021E00000F066F831490888402100F061F85BE0B2
:1021F0002E490888022100F05BF82C490888042148
:1022000000F056F8294908884FF4805100F050F842
:1022100026490888012100F04BF845E02349088849
:10222000082100F045F821490888022100F040F813
:102230001E4908884FF4805100F03AF81B4908887D
:10224000802100F035F819490888012100F030F8A4
:1022500016490888402100F02BF825E0134908882A
:10226000022100F025F811490888042100F020F827
:102270000E490888402100F01BF815E00B4908883A
:10228000042100F015F809490888402100F010F8F1
:1022900006490888012100F00BF8044908884FF42A
:1022A000805100F005F800BF00BF00BDFC04002015
:1022B000002948D0012804D0022806D003280ED1D6
:1022C00008E00422264B1A8009E04FF48062244B78
:1022D0001A8004E04FF40062214B1A8000BF00BF57
:1022E00008290FD006DC012914D002291FD00429A7
:1022F00028D118E0402912D0802907D0B1F5805F9D
:1023000020D119E00822174B1A831BE08022154BBD
:102310001A8317E00122124B9B1E1A8012E0402202
:10232000104B1A830EE004220E4B1A830AE002229D
:102330000B4B9B1E1A8005E04FF48052084B9B1EEE
:102340001A8000BF0AE0CC22064B5A8341F20302F6
:10235000034B1A8040F604429B1E1A80704700000F
:102360001A040240000002400548817A19B1052193
:10237000044A116002E00121024A11607047000026
:10238000082B0020500600207CB502211C48FFF7D6
:10239000F0FC05466846FFF7F9FC00208DF80400C4
:1023A00002208DF8070003208DF805000220009020
:1023B00069461348FFF778FC002600E0761C42F2DD
:1023C00010708642FAD302210D48FFF7D2FC044672
:1023D00001208DF8070069460948FFF765FC1CB924
:1023E000012D01D102207CBD14B90DB90020FAE7FE
:1023F000012C03D1012D01D10120F4E70420F2E7E3
:102400000000024000BFFEE77047704770B5002132
:1024100000230F22C4781CB3174C246804F4E06432
:10242000C4F5E064C4F30721C1F10404E3B20A4136
:1024300044789C40E1B28478144021430C07210E7B
:102440000E4C05786155047804F01F050124AC405A
:1024500005786D11AD0005F1E025C5F8004109E0F2
:10246000047804F01F050124AC40054D0678761170
:1024700045F8264070BD00000CED00E000E400E0EF
:1024800080E100E002490143024A11607047000008
:102490000000FA050CED00E070B502264748006820
:1024A000447846480068007800F07F00002844D156
:1024B000092C03D101F03CFB06465FE0052C14D14A
:1024C0003E480068C0787F280BDC3C480068807874
:1024D00038B93A480068808818B938480068807A66
:1024E00008B1082565E0002648E0032C0ED13348EA
:1024F0000068C078012807D130480068808818B982
:1025000001F03AFB064639E0022637E0012C35D1CE
:102510002A480068C07801280DD1284800688088C2
:1025200048B926480068407A00F0200018B101F050
:102530008BF9064622E0022620E020480068007859
:1025400000F07F00012805D10B2C17D101F090FB82
:10255000064613E019480068007800F07F00022862
:102560000BD1012C03D101F06FF9064606E0032CD4
:1025700004D101F015FB064600E002264EB1E0B2A0
:102580000F4A1268516988470646032E01D1092572
:102590000FE00EB108250CE006250021094800686F
:1025A00080B2801C084A42F8101030200749088089
:1025B00000BF024909680D7270BD0000340500209B
:1025C00038050020505C00400060004046050020B7
:1025D00010B511480068047A022C01D0042C01D1F6
:1025E000082412E0032C01D0052C05D1FFF710F8C8
:1025F00009480068047A08E0072C05D107490968F2
:10260000C8688047082400E00824034909680C7260
:1026100000F06EF810BD00003405002038050020E1
:10262000F0B5561C7510074E06EB41042B4605E02D
:1026300034F8047B20F8017B401C5B1E002BF7D193
:10264000F0BD00000060004010B5024600200C4BB9
:10265000186820F00300104318600A4B1B6843F011
:102660000403084C2360012901D130BF00E020BFE2
:10267000044B1B6823F00403024C236010BD0000D0
:102680000070004010ED00E00149886270470000D2
:1026900000000E4201460020034A52680A400AB177
:1026A000012000E0002070470070004001490861EF
:1026B0007047000000000E420149086270470000A8
:1026C00000000E42014948627047000000000E42BF
:1026D00001460020044A106820F4C050084320F04E
:1026E0000C02014B1A6070470070004070470000F8
:1026F00010B50D4890F82C10002000F0D9FE0B48C2
:102700000068007A082805D1400209490880102095
:102710000849088005480068007A092801D101208D
:1027200010BD0020FCE70000CC050020340500208F
:10273000440500204605002010B5012001F0CEFF21
:1027400001240B48046000200A49088008460088DC
:10275000074908600020091D08604FF4E050054952
:1027600008800846008802490860002010BD00006B
:10277000405C00403E0500201FB50120D649C871CD
:1027800000208871D549087000220421D44801F046
:102790001DFE00220121D24801F0C5FE00220421C5
:1027A000CF4801F0C0FE00214FF0804001F020FE34
:1027B0004FF0804001F028FE0021C94801F018FECA
:1027C000C74801F021FE0021C64801F011FEC548AE
:1027D00001F01AFE0021C44801F00AFEC24801F0CF
:1027E00013FE0021C14801F003FEC04801F00CFEB9
:1027F0000021012000F0D2FA0021022000F0CEFAE0
:102800000021042000F0CAFA0021042000F0E6FABA
:102810000021082000F0E2FA0021B548FEF744F854
:102820000021B348FEF74BF80020FEF723FA002101
:10283000B048FEF791FD00211020FEF727FCFEF7BF
:1028400039FCAB48FEF752F8AA48FEF791FD00208C
:1028500000F01AFB00214FF0807000F08FFA002189
:102860004FF4007000F0BAFA00214FF0005000F071
:1028700095FA022000F0E0F900214FF4000000F08A
:102880008DFA03F0AFFA0120FFF71CFF0020FFF7DD
:102890000DFF02A8FFF77AFA03208DF80C00002044
:1028A0008DF80F000120029002A99348FFF7FCF970
:1028B0000220029002A99048FFF7F6F9102002903A
:1028C00002A98D48FFF7F0F92020029002A98A485A
:1028D000FFF7EAF94FF48070029002A98648FFF7EB
:1028E000E3F94FF40070029002A98348FFF7DCF986
:1028F0004FF48060029002A97F48FFF7D5F94FF4AA
:102900000060029002A97C48FFF7CEF94FF4805096
:10291000029002A97848FFF7C7F94FF400400290EF
:1029200002A97548FFF7C0F94FF40040009000205D
:102930008DF806006846FFF765F902A8FFF726FA4A
:1029400003208DF80C0000208DF80F000820029065
:1029500002A96A48FFF7A8F91020029002A9674867
:10296000FFF7A2F92020029002A96448FFF79CF922
:102970008020029002A96148FFF796F94FF4007099
:10298000029002A95D48FFF78FF94FF400500290C2
:1029900002A95A48FFF788F94FF48040029002A933
:1029A0005648FFF781F94FF40040029002A95348BE
:1029B000FFF77AF902A8FFF7E9F903208DF80C0078
:1029C00000208DF80D004FF6FF70029002A94C48D0
:1029D000FFF76AF90021202000F0D0F903208DF8DC
:1029E0000C0000208DF80D004FF6FF70029002A938
:1029F0004448FFF759F90021042000F0BFF90021F5
:102A0000012000F0EBF900210720FEF7B7FB02A838
:102A1000FFF7BCF900208DF80C008DF80D000220A6
:102A20008DF80F000420029002A93348FFF73CF90B
:102A30000820029002A93048FFF736F940200290A2
:102A400002A92D48FFF730F98020029002A92A48F8
:102A5000FFF72AF90120029002A92848FFF724F97C
:102A60000220029002A92548FFF71EF94FF480507A
:102A7000029002A92148FFF717F902A8FFF786F98B
:102A800000208DF80C008DF80D0001208DF80F004E
:102A90000420029002A91948FFF706F94FF480605C
:102AA000029002A91548FFF7FFF84FF4006002906A
:102AB00002A91248FFF7F8F800208DF80C008DF8F5
:102AC0000D0002208DF80F004020029002A90B4853
:102AD000FFF7EAF81FBD0000F406002010050020F3
:102AE000000400400008004000080140000C0140C4
:102AF000002401400860024000000240000402403F
:102B0000001402400008024010B500203249C8718C
:102B100001203249487000202F49887002F06EFE73
:102B200003F002FA4FF4A060FFF7ACFC1020FDF7B1
:102B300007FE2B4908601420FDF702FE28490871A2
:102B40001820FDF7FDFD264948711C20FDF7F8FD12
:102B5000234988712020FDF7F3FD2149C871282001
:102B6000FDF7EEFD1E4908722C20FDF7E9FD1C491A
:102B700048723020FDF7E4FD1949887240F22620A2
:102B800002F0FAFD02F06CFC02F076FD02F09CFD12
:102B9000002000F051F8012000F04EF803F04EFA4A
:102BA00003F0C0FA03F042FB03F0B2FB03F000FABB
:102BB0000B48006840F2EE21884204D903210948FD
:102BC00001F052FD03E00221064801F04DFDFEF741
:102BD000E9FEFEF715FF10BDF4060020D806002020
:102BE000E80600200004004010B504460F48407875
:102BF000D8B1012C12D10D480078B0B90C4800783A
:102C000098B90A48047040F29A210A4801F028FD58
:102C100001220421074801F0D9FB06E0002204212B
:102C2000044801F0D3FB0148047010BDD806002011
:102C3000120500200004004010B586B0044634B1EF
:102C4000012C4DD0022C6CD0032C76D176E00121E2
:102C5000084600F0C3F80121C80700F09FF80121E1
:102C6000102000F0ABFB4FF4E0100290C000039086
:102C70004FF48050019000BF0820FFF70BFD0128A2
:102C8000FAD101A8FEF764F800BF3B48006800F4E1
:102C9000E0100028F9D004A8FEF7FEFF4FF48000F2
:102CA000049000208DF8140008208DF815000120F4
:102CB0008DF8160004A8FEF7A5FF16208DF8000079
:102CC00002208DF802008DF8010001208DF803002C
:102CD0006846FFF79BFB4FF48000FEF781FF48E05A
:102CE0000121C80700F05AF84FF4E0100290C0002C
:102CF00003904FF48050019000BF0820FFF7CAFCFA
:102D00000128FAD101A8FEF723F800BF1A4800688D
:102D100000F4E0100028F9D04FF48000FEF760FFC7
:102D200027E0FDF7E9FF4FF48000FEF759FF00218F
:102D30004FF0004000F032F81BE019E004A8FEF765
:102D4000ABFF4FF48000049000208DF8160004A81B
:102D5000FEF758FF16208DF8000000208DF80300C4
:102D60006846FFF753FB4FF48000FEF739FF00E0A1
:102D700000BF00BF06B010BD007C004029B1064A6C
:102D800012680243044B1A6004E0034A126882434B
:102D9000014B1A60704700001C38024029B1064AF6
:102DA00012680243044B1A6004E0034A126882432B
:102DB000014B1A60704700002438024029B1064ACE
:102DC00012680243044B1A6004E0034A126882430B
:102DD000014B1A60704700001838024029B1064ABA
:102DE00012680243044B1A6004E0034A12688243EB
:102DF000014B1A60704700002038024029B1064A92
:102E000012680243044B1A6004E0034A12688243CA
:102E1000014B1A60704700001438024010B501469B
:102E20000022002300204A11012A02D1074C236806
:102E300002E0064C3434236801F01F020124944060
:102E40001C400CB1012000E0002010BD0038024001
:102E50000248006800F00C0070470000083802408B
:102E600001460020034A106820F0F000084310607B
:102E700070470000083802400021024A11701146D4
:102E8000087070470238024001490860704700002E
:102E90000000474201490860704700008006474231
:102EA00001490862704700000000474201460020C7
:102EB000034A106820F46040084310607047000027
:102EC0000438024001460020034A106820F4E06004
:102ED0000843106070470000083802400146002097
:102EE000034A106820F4605040EAC1001060704747
:102EF0000838024001490866704700000000474258
:102F000010B541EA02030343014C237010BD0000D9
:102F10000A3802400149086070470000D80647425D
:102F2000002100F44032B2F5403F08D10C4A11684C
:102F300021F0C04100F0C0421143094A1160084A23
:102F40003432126822F44032054B34331A601A4688
:102F5000126800F440331A43014B34331A6070474F
:102F6000003802400149086070470000DC06474213
:102F700001460020034A106820F003000843106057
:102F80007047000008380240014600BF080900EB06
:102F90008000420001F00F001044C0B270470146AB
:102FA000002204E0501CC2B2A1F10A00C1B20A29F9
:102FB000F8DA100741EA10607047000008B50121F7
:102FC0000807FFF7EBFE002000F0A6F841F21221FF
:102FD000884202D101201C4908700120FFF76CFBD8
:102FE0000120FFF7BFFF0020FFF7BCFF0120FFF724
:102FF00051FF00BF4120FFF711FF0028FAD04FF426
:103000000030FFF78DFF0120FFF784FF00F0FCF890
:103010007F200E4948604FF490708860002008605F
:10302000084600F047F800208DF8030001208DF8D5
:10303000000000208DF801008DF802006946012093
:1030400000F07AF808BD0000230500209C0600204F
:1030500008B50022009200200021104A126802F0F8
:103060004002CAB9421E0D4B1A6000BF0B4A1268DB
:1030700002F04001009A521C0092009AB2F5005FE3
:1030800001D00029F2D0054A126802F040020AB1CC
:10309000012002E0002000E0012008BD0C280040D3
:1030A0000348006820F08000014908607047000074
:1030B0000C28004030B504460025CA201549086098
:1030C00053200860FFF7C4FF00B91DE011481C3809
:1030D000006820F040000F491C390860084600686D
:1030E000216808430B491C3908600A491439A06853
:1030F000086008460068A18840EA01400549143983
:103100000860FFF7CDFF0125FF200249086028462F
:1031100030BD00002428004008B501460020009082
:1031200004480090009800EB81000090009800682F
:1031300008BD0000502800402DE9F04105460C462E
:10314000002600274DB92E48006800F0400000B16D
:1031500002E00020E07000BF0DE02948006800F0A8
:10316000400020B12078FFF70FFF064602E0002064
:10317000E07000BF00BF55B120780004617840EADC
:103180000120A1780843E17840EA014611E0207867
:10319000FFF705FF4FEA00486078FFF700FF48EAB5
:1031A0000028A078FFF7FBFE48EA0008E07848EA2C
:1031B0000046CA2012491C31086053200860FFF7FE
:1031C00047FF08B9002713E00E4830400C49083982
:1031D0000860FFF765FF0A48006800F0200030B97A
:1031E00000F012F808B9002702E0012700E00127EB
:1031F000FF2003491C3108603846BDE8F08100001B
:10320000082800407F7F7F0008B500220092002040
:103210000021CA22134B1A6053221A60114A183A2D
:10322000126822F0A0020F4B183B1A6000BF0D4A33
:10323000183A126802F02001009A521C0092009A7B
:10324000B2F5004F01D00029F1D0064A183A1268B1
:1032500002F020020AB1012000E00020FF22014B11
:103260001A6008BD2428004008B500220092044AD4
:103270000092009A02EB80020092009A116008BD51
:103280005028004070B50546072D01D02E48057026
:103290002D48007808284ED2DFE800F004111A20EB
:1032A0002B384E4F2948006828B900F053F8062003
:1032B0002549087002E005202349087041E000F02C
:1032C00049F804202049087001202049086038E0AE
:1032D00002201D4948700320087032E01A484078E7
:1032E000401E194948700846407808B90420087003
:1032F00027E01748006884B244F0100414480460C2
:103300000520114908700A2048701AE00E484078DC
:10331000401E0D4948700846407858B90C4800686E
:1033200084B224F010040A480460062008700020CB
:103330000649086005E000BF00BF0620024908708A
:1033400000BF00BF70BD00005506002058060020D9
:10335000405C004010B50748006884B224F00404C3
:1033600004480460FFF700F84FF43F40014908604B
:1033700010BD0000405C00407047000030B50022E6
:103380008B071C0F0F2303FA04F20B4B8C1053F81E
:1033900024309343084C8D1044F8253023468C107C
:1033A00053F824308C07240F00FA04F42343024C12
:1033B0008D1044F8253030BD0800014010B50022C2
:1033C000C20F20F0004071B12AB10E4B1B680343BD
:1033D0000C4C236015E00B4B1B1D1B680343094C71
:1033E000241D23600DE02AB1064B1B688343054C66
:1033F000236006E0034B1B1D1B688343014C241D07
:10340000236010BD087C004030B10749496841F095
:103410000101054A516005E00349496821F00101B5
:10342000014A516070470000000001404FF6F871FA
:103430000140014A11607047505C004030B50146C0
:103440000F4B1A78002014E003060E4C04EB935344
:10345000D3F8003C48F68F74234048F2800423439D
:10346000C4B223430406074D05EB9454C4F8003C52
:10347000401C9042E8D341F08003034C236030BDF0
:10348000C8050020005000404C5C004010B54A10B8
:103490005300054A126892B202EBC002121D034C9F
:1034A00044F8123010BD0000505C00400060004045
:1034B00010B502460F48006880B200EBC200801DC4
:1034C0000D4C04EB40033E290BDD481101F01F04B5
:1034D0000CB9441EA0B24FF4004444EA80241C609E
:1034E00007E0481001F001040CB1441CA0B28402B2
:1034F0001C6010BD505C00400060004030B50E4CB8
:1035000004EB8003D3F8003C4BF68F7403EA04020B
:1035100001F480530BB182F4805201F400530BB1DB
:1035200082F4005242F4004343F08003024D05EB65
:103530008004C4F8003C30BD0050004010B50B4B77
:1035400003EB8002D2F8002C4BF68F7302EA0301E2
:1035500081F4805181F4005141F4004242F0800234
:10356000024C04EB8003C3F8002C10BD0050004057
:1035700010B54A105200044B1B689BB203EBC0030A
:10358000024C44F8132010BD505C00400060004025
:10359000044A126892B202EBC002921C024B43F83A
:1035A00012107047505C00400060004030B50E4C77
:1035B00004EB8003D3F8003C48F6BF7403EA04022E
:1035C00001F010030BB182F0100201F020030BB1E7
:1035D00082F0200242F4004343F08003024D05EBE9
:1035E0008004C4F8003C30BD0050004010B50B4BC7
:1035F00003EB8002D2F8002C48F6BF7302EA030105
:1036000081F0100181F0200141F4004242F080027B
:10361000024C04EB8003C3F8002C10BD00500040A6
:1036200010B5074B03EB8002D2F8002C48F68F133D
:103630001A400A43024C04EB8003C3F8002C10BD6F
:10364000005000400CB50020019000903E480068FA
:1036500040F480303C49086000BF3B48006800F4FB
:10366000003000900198401C0190009818B9019812
:10367000B0F5A04FF1D13448006800F4003010B12B
:103680000120009001E0002000900098012859D10D
:103690002E48006840F004002C4908600846006885
:1036A00040F0020008600846006840F00100086031
:1036B00025482430006840F08050234924310860B8
:1036C000C8142349086000BF2148406800F010007A
:1036D0000028F9D11C48083000681B4908310860EF
:1036E00008460068086008460068086008460068E8
:1036F00020F47D0008600846006840F4110008606E
:103700001148006840F080700F49086000BF0E4803
:10371000006800F000700028F9D00B4808300068FD
:1037200020F003000849083108600846006840F0AE
:103730000300086000BF04480830006800F00C0077
:103740000C28F8D10CBD000000380240003C0240BB
:103750000070004010B501210846FFF73FFB4FF411
:103760008020FEF73DFA4FF48020054908600820CC
:103770004871012088710846FEF744FA10BD000028
:103780004C05002010B50121C805FFF707FB10BD4F
:1037900038B501242948006880B2001D284931F855
:1037A000100080B201EB4000009026480068007ACB
:1037B000092832D0009800782249096808700098DA
:1037C000401C0090009800781E49096848700098D5
:1037D000401C0090009800EB44000090009931F8E4
:1037E000020B0091FDF75AFA1649096848800098C3
:1037F00000EB44000090009931F8020B0091FDF7B6
:103800004DFA104909688880009800EB4400009048
:10381000009800880B490968C88001200949096897
:10382000087208480068C08810B9FEF735FE01E04C
:10383000FDF74CFFFEF75CFF38BD0000505C004018
:1038400000600040340500202DE9F047544800682E
:10385000007800F07F08B8F1000F0AD150480068E6
:10386000407A00F0DF004E49096848720020BDE848
:10387000F087B8F1020F7CD149480068408818B938
:1038800047480068007908B10220F0E7DFF814919A
:1038900043480068477927F080052C464048006877
:1038A000407900F0800038B13F4901EB8400D0F846
:1038B000000C00F0300606E03B4901EB8400D0F834
:1038C000000C00F4405699F80000A84204D91EB13B
:1038D00033480068807A08B90220C8E707F0800002
:1038E00080B1314901EB8400D0F8000C00F03000C9
:1038F00010284BD1E0B2FDF79BFBE0B23021FFF77F
:1039000055FE43E0284901EB8400D0F8000C00F498
:103910004050B0F5805F39D1E4B9244A92F82C10B8
:10392000E0B2FFF7C5FD204A02EB8401D1F8001C8C
:103930004BF68F7201EA020080F4805080F4005050
:1039400040F4004141F08001174B03EB8402C2F8C0
:10395000001C1BE0E0B2FDF751FB134A02EB8401AF
:10396000D1F8001C4BF68F7201EA020080F48050FF
:1039700000E011E080F4005040F4004141F080018B
:10398000094B03EB8402C2F8001C00BF0849096818
:103990004869804700206AE700BF022067E700000F
:1039A00034050020C805002000500040CC05002050
:1039B0004005002010B504462CB9012006490968CD
:1039C0000882002010BD0549096808688047024840
:1039D00000680A30F6E700003405002040050020AA
:1039E00010B5024606480068438A32B98888C01A72
:1039F000034C24682082002010BD08681844FBE7AF
:103A00003405002010B504462CB901200649096888
:103A10000882002010BD054909688868804702486F
:103A200000680C30F6E70000340500204005002057
:103A300010B504462CB902203949096808820020D3
:103A400010BD00203749088035480068007800F034
:103A50007F0018BB32490968487A00F0200131B173
:103A60003049097841F002012E4A117005E02D49D4
:103A7000097801F0FD012B4A117000F0400131B1CD
:103A80002849097841F00101264A117005E02549CD
:103A9000097801F0FE01234A11703AE020480068DD
:103AA000007800F07F00012801D11E48C8E71C48BB
:103AB0000068007800F07F00022828D1184A1268B8
:103AC000517901F00F0001F080027AB1164B03EB3F
:103AD0008002D2F8002C02F03002102A16D1114ACE
:103AE000127842F001020F4B1A700FE00E4B03EBFD
:103AF0008002D2F8002C02F44052B2F5805F05D16A
:103B0000084A127842F00102064B1A7001E00020C8
:103B100096E70649096808698047024890E700006F
:103B2000340500202C0500200050004040050020F6
:103B300010B50E480068C0780D494978884213DCFA
:103B40000A480068807878B908480068808858B9C1
:103B500006480068C07805490968887205490968FF
:103B600048688047002010BD0220FCE73405002093
:103B7000C80500204005002010B507480068407ABD
:103B800040F0200004490968487204490968C8697E
:103B90008047002010BD00003405002040050020B3
:103BA0002DE9F0412E480068467926F080073C4612
:103BB0002B480068407900F0800038B1294901EBBA
:103BC0008400D0F8000C00F0300506E0254901EB38
:103BD0008400D0F8000C00F4405523480078A0423F
:103BE00008D91F480068408820B91DB11C480068EA
:103BF000807A10B90220BDE8F08106F08000A0B103
:103C0000184A02EB8401D1F8001C48F6BF7201EAA1
:103C1000020080F0100040F4004141F08001114B9F
:103C200003EB8402C2F8001C14E00E4A02EB84018C
:103C3000D1F8001C4BF68F7201EA020080F480502C
:103C400040F4004141F08001064B03EB8402C2F8CE
:103C5000001C00BF05490968886980470020CAE741
:103C60003405002000500040C80500204005002019
:103C700010B5174B1B68D978154B1B685879154B35
:103C80001B689A699047044611480068807AE8B139
:103C90003CB90F480068007918B90D480068807871
:103CA00008B1022010BD8CB90B490968C86880476B
:103CB00007480068407906490968C87204480068E6
:103CC000C0780349096808730020EBE70220E9E7A0
:103CD0003405002038050020400500207047000012
:103CE00002480068401C014908607047DC0400205D
:103CF00070B5002200200021002400232D4D2D68E6
:103D000005F00C0232B1042A10D0082A12D00C2A75
:103D100036D113E0274D2D1F2D68C5F342335D1CAE
:103D20000126AE40F503244E356035E0234D224E8A
:103D3000356031E0224D204E35602DE01D4D2D685F
:103D400005F470101B4D2D6805F440011D4D05EB69
:103D500090452878012505EB9151164D2D6805F405
:103D6000803434B9154D4543B5FBF1F5124E35603D
:103D700005E0134D4543B5FBF1F50F4E35600BE003
:103D80000C4D2D1F2D68C5F342335D1C0126AE403E
:103D9000F503094E356000BF00BF064D2D68C5F321
:103DA0000315094E725D044D2D68D540024E3560F5
:103DB00070BD000008380240A40400200024F40074
:103DC00000127A00A8040020B104002010B51548A4
:103DD000006840F480701349086012480830006899
:103DE000114908400F49083108600E4800680F4922
:103DF00008400C4908600846006820F480200860EC
:103E000008480830006820F47D0006490831086041
:103E10000020091D0860FFF715FC4FF00060044901
:103E2000086010BD003802400CC0FF88FEFFFEEEA7
:103E300008ED00E010B50121114800F063FBF0B17E
:103E400001210F4800F0D1FA0220FCF75BFF58B9BE
:103E50000C48407810B10120FEF7C6FE0A48006801
:103E6000401C094908600AE00648407810B100206B
:103E7000FEF7BAFE04480068401E0349086010BD02
:103E8000000C0140D8060020AC2A002010B5042107
:103E9000080700F037FB40B10421080700F0A5FA3D
:103EA000084908880021FEF703FA0121880700F07D
:103EB00029FB30B10121880700F097FA012002495F
:103EC000087010BDFC0400201005002010B5012171
:103ED000244800F017FB18B30121224800F085FAAE
:103EE00020482030008800F0100414B101201E4941
:103EF00008701E48407898B11C48007888B91C4862
:103F0000006840B100201A490860002204211548C9
:103F100000F05CFA10E016480068401C1449086084
:103F20000AE00020124908600220FCF7EBFE01289D
:103F300002D10020FEF758FE02210A4800F0E2FA02
:103F400070B10221074800F050FA0748007838B1F4
:103F500008480068401C07490860002002490870B2
:103F600010BD00000004004012050020D80600200B
:103F7000C80400205827002010B501210F4800F088
:103F8000C1FAD0B101210D4800F02FFA0C480068A9
:103F900002280DDD00200A4908600022012107489F
:103FA00000F0C1FA00220C21044800F00FFA04E0EE
:103FB00003480068401C0249086010BD000800402A
:103FC000D004002070B50121E24800F09BFA0028DF
:103FD00075D00121DF4800F008FADF48C07820B131
:103FE000DE480068401CDD490860DB480078002896
:103FF00059D1D948C078002855D0D9480068B0F5C3
:10400000167F39DAD6480068401CD5490860084652
:1040100000680A2190FBF1F201FB1200002842D156
:1040200000241BE000214FF0804000F0E1F9042162
:10403000080700F0DAF90121880700F0D6F9C9492C
:1040400008880021FEF734F908210120FEF730F935
:1040500001220C21C44800F0B9F9641CB4F57A7F40
:10406000E0D3C04908880021FEF722F90122114659
:10407000BD4800F058FA16E0B748007998B9082111
:104080000120FEF715F90020B4490860002404E07F
:104090000020B64941F82400641CB4F5006FF7D342
:1040A0000120AD4908714FF48071B148FDF761FE00
:1040B00030B9A948007A401CA749087203E048E1DA
:1040C0000020A5490872A448007A142802DD0120C6
:1040D000A149C8710020A7490860A7490860A749FD
:1040E000886014242DE0601EA54951F8200041F895
:1040F0002400601EA34951F8200041F82400601EEE
:104100009F4951F820009B49096808449949086073
:10411000601E9C4951F82000974909680844964957
:104120000860601E984951F8200041F82400934827
:104130008168601E944A52F8200008448F498860C4
:10414000641E002CCFD18B48006840088949086064
:10415000894800684008884908600020884908604C
:1041600088490860884908608448806841F2941151
:10417000884204DC81488068494288421CDA7F48D2
:10418000C068642802D964207C49C8607B48C06844
:1041900046280BD200207949C8600846407850BBB9
:1041A000012048700020FEF747FD24E07348C068F6
:1041B000401E7249C8601EE07048C068401C6F49CC
:1041C000C8600846C068642815D90320FEF734FD8E
:1041D0006948006869494860674800686B49086039
:1041E00000206649487001220421694800F0EEF879
:1041F00000206249087061484078E8BB6248406826
:104200006149896808446049C9680844322190FBC3
:10421000F1F05E49096808445E4908605748406803
:1042200096280BD9554840686438096888420CD9EB
:104230005248406864385749086006E055480068AD
:10424000322802D23220534908604C48406864301A
:1042500050490968884204D24848406864304D4952
:1042600008604C4800684C49B1FBF0F4B4F5803F5D
:1042700001D34FF6FF7400E007E02146444800F008
:10428000EFF93D4800684149086044480068192832
:104290002EDB0020414908600120414908702E486A
:1042A000007820B12F4908880021FEF701F83D4829
:1042B0000088B0F5AA7F20DA2748807818B9012055
:1042C0002549887019E041F212210020FEF7CCFF49
:1042D00045F25550FDF7CCFD0020FDF7BDFD022055
:1042E000FDF7C0FDFDF7B0FDFDF7A6FD00BFFEE741
:1042F0002A480068401C2949086017488078B8B9E6
:104300001C480068B0F57A7F0BD31A4800684FF458
:104310007A71B0FBF1F52A4623A1244800F0D6FEBD
:104320000AE0144820A10268204800F0CFFE03E014
:104330001FA11E4800F0CAFEFDF7F8FD0F484078A7
:1043400038B10220FCF7DEFC012802D10020FEF784
:104350004BFC70BD00080140F40600201C05002045
:10436000D8040020FC0400200008004000070020C2
:10437000000402400C05002018050020D80600208B
:104380000427002058270020AC2A0020CC0400205D
:10439000000400402805002000093D00D40400204E
:1043A0002405002016050020253375000405002093
:1043B0004C6F200021B1028842F08002028004E0AC
:1043C00002884FF67F731A400280704730B5002391
:1043D00001248C40A3B2048C9C430484048C02FA14
:1043E00001F5ADB22C43048430BDCA43028270474C
:1043F00021B1028842F00102028004E002884FF6F7
:10440000FE731A400280704710B50446B4F1804F25
:1044100008D101210846FEF7D1FC00210120FEF75A
:10442000CDFC5EE02F48844208D101210220FEF736
:10443000C5FC00210220FEF7C1FC52E02A4884425C
:1044400008D101210420FEF7B9FC00210420FEF769
:10445000B5FC46E02548844208D101210820FEF73A
:10446000ADFC00210820FEF7A9FC3AE02048844278
:1044700008D101211020FEF7A1FC00211020FEF739
:104480009DFC2EE01B48844208D101212020FEF72C
:1044900095FC00212020FEF791FC22E01648844282
:1044A00008D101210420FEF7A9FC00210420FEF719
:1044B000A5FC16E01148844208D101210820FEF72E
:1044C0009DFC00210820FEF799FC0AE00C4884427C
:1044D00007D101211020FEF791FC00211020FEF7EA
:1044E0008DFC10BD0004004000080040000C00409E
:1044F000001000400014004000080140000C014082
:104500000010014030B50246002000230024158A27
:1045100005EA0103958905EA010413B10CB10120F4
:1045200000E0002030BD1AB183890B43838102E093
:1045300083898B438381704730B500230022048C2C
:104540004FF6FE752C400484028C038B4FF68F745B
:104550002340AC1E23400C8823436C1E22400C8950
:1045600022434C8822434C6844630383028430BD59
:104570000A460021018B4FF6F7731940114301835E
:10458000704730B500230022048C4FF6EF752C40A5
:104590000484028C038B48F6FF7423400C884FF68A
:1045A000FF7505EA042423434FF6DF7422400C898B
:1045B00005EA041422434C8805EA041422434C689B
:1045C00084630383028430BD0A460021018B4FF2CD
:1045D000FF7319404FF6FF7303EA02231943018367
:1045E000704730B500230022048C4EF6FF752C4036
:1045F0000484028C838B48F6FF7423400C884FF6AA
:10460000FF7505EA042423434DF6FF7422400C890C
:1046100005EA043422434C8805EA043422434C68FA
:1046200004648383028430BD0A460021818B4FF2EB
:10463000FF7319404FF6FF7303EA02231943818386
:10464000704700210180418041600181704782886C
:104650004FF68F731A40828082880A4382807047A7
:10466000C1627047416370478163704700220288CE
:10467000B0F1804F08D0104B984205D00F4B9842B4
:1046800002D00F4B984204D14FF68F731A404B88DB
:104690001A430C4B984207D00B4B984204D04FF66C
:1046A000FF431A400B891A4302804B68C3620B8890
:1046B0000385012383827047000400400008004006
:1046C000000C004000100040001400404FF0FF318B
:1046D00041600021018001814180704710B504468E
:1046E0001CB10120FEF790FE02E00020FEF78CFED8
:1046F00010BD10B54FF48020FDF772FA10BD000018
:1047000010B50A480A490860022009680872094879
:104710000949086009480A490860074909680868A2
:104720008047054909684868804710BD082B00206C
:1047300034050020CC05002038050020FC050020B1
:104740004005002008B54FF4A060FDF79BFE142043
:104750008DF8000002208DF8010000208DF8020085
:1047600001208DF803006846FDF750FE2A208DF8E1
:10477000000001208DF801008DF803006846FDF768
:1047800045FE08BD10B588B0002468480068684937
:1047900008800846008800F40070664909880840CF
:1047A00040B14FF6FF506149086063480078401CF3
:1047B000614908705E48008800F400405D4909883E
:1047C000084008B1FCF7D6FA5948008800F4806028
:1047D00058490988084030B14FF6FF305349086006
:1047E0005649486880475248008800F400505149B3
:1047F0000988084018B14DF6FF704C4908604C48D4
:10480000008800F480504B490988084030B14EF6CA
:10481000FF70464908600020FEF734FD44480088D8
:1048200000F4006043490988084060B144480078BA
:1048300010B1FFF753FA02E00220FEF723FD4FF21A
:10484000FF703A4908603A48008800F4807039499E
:1048500009880840002866D04FF6FF603349086099
:10486000081D006800F40040002856D03548006854
:10487000401C3449086008460068032850D92B487A
:10488000001F006800F00800002849D12748001FD9
:10489000006880B22C490860002408E02B4901EB35
:1048A0008400D0F8000C80B24DF82400641C082C61
:1048B000F4D32548006840F0010023490860084609
:1048C000006880B21949091F08601F48006820F07D
:1048D00001001D4908600846006880B21349091F9D
:1048E000086000BF1148006800F480600028F9D01B
:1048F0004FF6FF300D490860002408E05DF8240001
:1049000080B2124A02EB8401C1F8000C641C082C2E
:10491000F4D300200B49086002E000200949086038
:104920000720FEF7AFFC08B010BD0000445C00405B
:10493000780500203E0500207A050020CC050020E7
:10494000540600207C050020800500200050004017
:1049500010B5FFF717FF10BD0020064908604FF49F
:104960003F4005490880084600880249091F086041
:1049700000207047445C00403E05002010B5002137
:104980004FF40000FEF70AFA002012490870C870C0
:1049900000F09AFE0020FEF74FF90120FEF74CF9D7
:1049A00001210D48FFF724FD01218807FFF720FDB5
:1049B00004210807FFF719FD01218807FFF715FDFE
:1049C000064908880021FDF773FC01200149887120
:1049D00010BD0000F4060020000C0140FC04002083
:1049E00010B5012009490870FEF7B4FEFFF780F901
:1049F000FEF7C8FEFFF7A6FEFFF782FE04484068F8
:104A000040F001000249486010BD0000F40600209B
:104A1000000001402DE9F0410024E8480068052825
:104A20007ED1FCF741F9E6480068002878D000BF45
:104A3000B9E1402C01D3BDE8F081E248005D0528D2
:104A400046D006DC01280BD0022823D0042868D1E8
:104A50002CE0072866D039287ED04028F7D16BE1BA
:104A6000E520D9490870D9A000794870D7A04079CD
:104A70008870D6A00078C870D4A040780871D3A000
:104A800080784871D1A0807A88710720D249086067
:104A9000641C70E10322D149042001F057F9CE498A
:104AA00008600846006800B9641C64E1002504E061
:104AB0000020CB4941F825006D1CB5F5006FF7D3F8
:104AC0000020C8490860C448006800B9641C52E16D
:104AD0000620BD490870C448007BC449C979401A02
:104AE000B9494870C14800788870C0480088000AF9
:104AF000C870BE480068000C0871BD480078487155
:104B0000BB480088000A8871BA480078C871B94863
:104B10000088000A0872B7480068000C487202E07A
:104B200049E126E13BE0B3480068000E8872AD48D9
:104B300000680A21B0FBF1F6A349CE72300A08736F
:104B4000300C4873300E8873AB480078C873AA489D
:104B50000088000A087400E0E9E0A7480068000C3B
:104B60004874A5480068000E8874A048407AC8744C
:104B70009E48407908759D48807948759B48C07962
:104B800088759A48807AC8759848007A08769B4854
:104B9000007848761A2090490860641CEBE004F124
:104BA0000A008749096888427ED88649601C085CEB
:104BB0008E4908600846834A0168A01C105C01EB1E
:104BC00000208A49086008460168E01C105C01EB7F
:104BD000004086490860E41C084601681020FBF785
:104BE000B4FD8248006840F2EE21884204D90321D6
:104BF0008348FFF739FD03E002218148FFF734FDC8
:104C000000F06EFD6F49601C085C78494872641CB6
:104C10000846417A2C20FBF798FD6A49601C085C25
:104C200072494871641C084641791820FBF78DFDD4
:104C30006449601C085C6D498871641C0846817970
:104C40001C20FBF782FD01F0F9F96E48007888B16D
:104C500000214FF08040FFF7CBFB04210807FFF74E
:104C6000C4FB01218807FFF7C0FB674908880021C2
:104C7000FDF71EFB5349601C085C5C49C871641C4D
:104C80000846C1792020FBF760FD641C4D49601C7B
:104C9000085C56490872641C0846017A2820FBF714
:104CA00054FD5248017A00E03EE05848FFF7DAFC34
:104CB0004449601C085C002803DD01204F4908704E
:104CC00002E000204D4908703E49601C085C4749DD
:104CD0008872641C0846817A3020FBF736FD434811
:104CE000807A20B1012809D0022815D10DE00023D7
:104CF000012219464648FBF785FE14E001231A46B7
:104D000000214348FBF77EFE0DE002230122002133
:104D10003F48FBF777FE06E00323012200213C48D1
:104D2000FBF770FE00BF01E02548046823E0002087
:104D30002A490880641C1EE0002504E00020284960
:104D400041F825006D1CB5F5006FF7D3002025490B
:104D50000860FBF7FFFC4FF48270FBF7F1FC214980
:104D600008604FF48470FBF7EBFC1F49C860641CBB
:104D700001E0641C00BF00BF1748006898B100271D
:104D800000E07F1C23480068012803D04FF6FF7025
:104D90008742F6D310480068C1B20B48FBF790FF7A
:104DA00000200D49086006480068A0423FF641AE69
:104DB00000200349086000BF3DE6000050060020C7
:104DC00074050020242B00205C0600204170722016
:104DD00032352032303137005405002020050020C4
:104DE000000700201C050020B8060020E80600206F
:104DF000160500200C0500201805002022050020C3
:104E000000040040F4060020FC040020000C0140D7
:104E100000240140E004002000BFFEE7F0B5144686
:104E200004F1010C4FEA6C07DFF824C00CEB4103DE
:104E30003D460AE00678401C90F800C046EA0C2285
:104E400023F8022B9B1C401C6D1E002DF2D1F0BDDF
:104E50000060004070B504460025212C08D112489E
:104E60000068007800F07F0021280ED10F4D0CE083
:104E7000202C0AD10C480068007800F07F0021281F
:104E800000D10B4D20200B4908700DB9022070BDD8
:104E900005480068856100210348006841820020C0
:104EA000A8470020F3E7000034050020E14E000889
:104EB00071500008BC05002010B504460249204688
:104EC000FEF78EFD10BD00002806002010B5044638
:104ED00002492046FEF784FD10BD00002006002098
:104EE000014629B90820034A126810820020704741
:104EF0000148FCE734050020C005002070B50546D8
:104F000006480068C478042C01DD002070BD044808
:104F100000EBC4012846FEF763FDF7E734050020E7
:104F2000300600200246002901DD02207047012AD8
:104F300001DD0220FAE70020F8E7000001460848FA
:104F40000068007800F07F00212807D1022901D1F4
:104F500000207047222901D10020FAE70220F8E75B
:104F60003405002010B5002034490968887234489F
:104F7000C079324909684872002030490968C8720E
:104F8000FEF754FA4FF400710020FEF749FB1021A0
:104F90000020FEF70BFB40210020FEF777FA80216E
:104FA0000020FEF7E5FA0020FCF75CF8254890F8B1
:104FB0002C100020FEF77CFA0020FEF7BFFA00213B
:104FC0000120FEF72DFBC0210120FEF7D1FA2021A0
:104FD0000120FEF7EBFA00210120FEF78FFA4FF4D3
:104FE000C0610220FEF71CFB4FF480710220FEF727
:104FF000BFFA00210220FEF781FA20210220FEF7ED
:10500000D5FA00210320FEF70BFB4FF48871032033
:10501000FEF73CFA40210320FEF74AFA4FF44051D4
:105020000320FEF76BFA00210320FEF7BFFA0020F1
:10503000FEF704FA01200449086010BD3405002081
:10504000B2630008CC050020500600200348817A96
:1050500011B10521024A116070470000082B0020A1
:1050600050060020042001490860704750060020C7
:10507000014629B90820034A1268108200207047AF
:105080000148FCE734050020C005002003480078F3
:10509000202802D10020014908707047BC0500207B
:1050A0007047000010B5FCF7ADFE00200549096807
:1050B0008872FDF741FBFFF74FFC002002490860B2
:1050C00010BD000034050020500600200FB4084B2E
:1050D00010B504A902AA039800F01CF8044602A91E
:1050E000002000F0B8F9204610BC5DF814FB000069
:1050F0005754000802E008C8121F08C1002AFAD15C
:1051000070477047002001E001C1121F002AFBD147
:10511000704700002DE9FF4F8BB0884605460026FA
:1051200006E025280BD0DDE90D1290476D1C761C9A
:1051300028780028F5D10FB03046BDE8F08F002464
:10514000A146A2460122AE4900E0044315F8013F02
:10515000203B02FA03F00842F7D128782A2810D021
:105160006FF02F022878A0F13001092915D809EB3A
:10517000890102EB410144F0020400EB01096D1CBE
:10518000F0E758F8041B5FEA010903D544F4005422
:10519000C9F1000944F002046D1C28782E2817D1AB
:1051A00015F8010F44F004042A280ED06FF02F02E6
:1051B0002878A0F1300109290AD80AEB8A0102EB0C
:1051C000410100EB010A6D1CF2E758F804AB6D1CBD
:1051D00028786C280FD006DC4C2817D068280DD012
:1051E0006A2814D104E0742810D07A280FD10DE079
:1051F00044F400140AE044F4801401E044F4401440
:105200006978814202D104F580146D1C6D1C2878E8
:10521000692865D006DC00288DD0632827D0642853
:1052200006D15DE06E2808D073282AD0752877D083
:10523000DDE90D129047761CE0E0C4F3025002282D
:1052400009D003280DD0D8F8001004280DD00E6026
:1052500008F10408D2E0D8F80010F217C1E90062A2
:10526000F6E7D8F800100E80F2E70E70F0E718F8B5
:10527000041B8DF8001000208DF80100EB46012082
:1052800003E058F804BB4FF0FF3061074FF0000710
:1052900001D40AE07F1C57450DDA8742FADB1BF880
:1052A00007100029F6D106E07F1C8742FCDB1BF8C3
:1052B00007100029F8D1DDE90D23A9EB070081468D
:1052C000214600F0B1F83044C61904E0DDE90D12C2
:1052D0001BF8010B90477F1EF8D22146484688E014
:1052E00058F8040BC4F302514FF00A0B032900D104
:1052F00000B2042900D140B2002802DA40422D2138
:1053000002E0210505D52B218DF82410012104E0B0
:1053100006E0E10710D02021F6E708AF089113E07E
:1053200058F8040BC4F302514FF00A0B032900D1C3
:1053300080B2042900D1C0B20021EEE75946FBF744
:10534000F9F8303107F8011D0028F7D1ADEB07005F
:1053500000F1200B600702D524F4803401E04FF007
:10536000010ADA4502DDAAEB0B0000E000208246CC
:1053700000EB0B0108980144A9EB01000A90E0033F
:1053800006D4DDE90D2321460A9800F04DF80644C5
:105390004FF0000908E009A911F80900DDE90D1234
:1053A000904709F10109761C08998945F3DBE00370
:1053B0000CD5DDE90D2321460A9800F035F80644A6
:1053C00004E0DDE90D1230209047761CBAF10001AF
:1053D000AAF1010AF5DC05E0DDE90D1217F8010B71
:1053E0009047761CBBF10001ABF1010BF4DC0A988D
:1053F0002146DDE90D2300F005F806446D1C97E613
:10540000092801002DE9F041044600251E461746F3
:10541000880404D405E039462020B0476D1C641E82
:10542000F9D52846BDE8F0812DE9F0410446002574
:105430001E469046C80301D5302700E02027880487
:1054400004D505E041463846B0476D1C641EF9D5C9
:105450002846BDE8F0810A68531C0B601070704745
:1054600000B593B001210806FDF788FC7D48FBF7E5
:105470007FFF01A8FCF75FF87B4801907B48029012
:10548000002003904FF4C07004900020059080200D
:1054900006904000079080000890202009900002AC
:1054A0000A9000200B9001A96E48FCF726F80B200B
:1054B0008DF8300002208DF831008DF83200012087
:1054C0008DF833000CA8FCF7A1FF012202216548EA
:1054D000FCF70AF80120FDF7D7FC00BF2120FDF7FB
:1054E0009DFC0028FAD001214802FDF777FC00213D
:1054F0005D485838FBF7C8F95D48006840F4000083
:105500005B4908600DA8FBF7A7FB00200D90012068
:105510008DF838008DF839004FF0C06010904FF0D2
:1055200000500F900020119003208DF848000DA925
:105530004D485838FBF73CFA10214B485838FBF7D8
:10554000E5F900224FF4403147485838FBF7CFFACD
:105550000120FBF78FFB00BF0820FDF79BF8002818
:10556000FAD00723012211213F485838FBF7C8FA27
:105570000723022210213C485838FBF7C1FA0723C1
:105580000322132138485838FBF7BAFA12208DF855
:10559000300001208DF833008DF8310000208DF8A7
:1055A00032000CA8FCF732FF012240F207412E48DE
:1055B0005838FBF7EDF900212B485838FBF78BFAE8
:1055C0002C48807A20B101280AD0022818D10FE097
:1055D00000230122194624485838FBF713FA17E034
:1055E00001231A46002120485838FBF70BFA0FE038
:1055F0000223012200211C485838FBF703FA07E078
:1056000003230122002118485838FBF7FBF900BF9B
:1056100000BF4FF4702114485838FBF77FF94FF45E
:10562000801111485838FBF781F901210D48FBF72B
:1056300093FE01210C485838FBF74CF901210A4828
:105640005838FBF73CF9012107485838FBF72CF98B
:1056500000BF402104485838FBF770F90028F8D003
:1056600013B000BD0860024058240140AC27002060
:1056700004270140E80600201FB501214807FDF777
:105680008DFB6846FBF774FD3C20009000200190E4
:105690000220039069461020FBF72AFD012110200B
:1056A000FBF7F4FC0A210020FBF73CFD1FBD10B501
:1056B00000211020FBF7EAFCFBF7FCFC00214FF077
:1056C0000050FDF76BFB10BD10B5FFF7D5FF0121B2
:1056D0004807FDF763FB01211020FBF7D7FC10BD45
:1056E0002DE9F05F1F490868FAF7D2FE8346FAF702
:1056F000E8FE80461C4A1D4BFAF752FE06464FF064
:1057000066321B4BFAF7DAFD0446FAF7EDFE8246E5
:10571000184881695046FAF793FD0446FAF7BDFE32
:105720001449C8611020FBF7D1FCC01C1149C9699C
:10573000884207D31020FBF7C9FCC01E0D49C96978
:10574000884209D9FFF7B3FFFFF7BEFF0948808BF6
:1057500081B20020FBF7E6FC01211020FBF7F2FCF0
:10576000BDE8F09FE80600209A999999198DB340F9
:1057700066661440B806002070B503461B480068F2
:105780004FF47A72B0FBF2F1481EB0F1807F01D382
:1057900001201BE0481E4FF0E022506150170F22FD
:1057A000002807DA1407260E114C00F00F052D1FF4
:1057B000665503E01407250E0E4C255400BF00204B
:1057C0004FF0E022906107201061002008B100BF77
:1057D000FEE700200849086000BF074800689842BB
:1057E000FBD300204FF0E021086170BDA40400202D
:1057F00018ED00E000E400E0DC0400201CB501210D
:105800000846FDF7BBFA01210220FDF7B7FA012196
:105810000420FDF7B3FA6846FCF7B8FA4020009080
:1058200001208DF8040000208DF8060003208DF87B
:10583000050000208DF8070069468B48FCF734FA14
:1058400040218948FCF7A0FA6846FCF79FFACC2073
:10585000009001208DF8040000208DF80600032040
:105860008DF8050000208DF8070069467F48FCF799
:105870001BFA08217D48FCF785FA80217B48FCF75C
:1058800081FA40217948FCF77DFA04217748FCF73A
:1058900079FA6846FCF77AFA41F607400090012051
:1058A0008DF8040000208DF8060003208DF8050017
:1058B00000208DF8070069466B48FCF7F5F90121D7
:1058C0006948FCF75FFA02216748FCF75BFA4FF47E
:1058D00080516548FCF756FA04216348FCF754FAF6
:1058E0004FF480616048FCF74FFA4FF400615E4866
:1058F000FCF74AFA6846FCF749FA2020009002209B
:105900008DF8040000208DF8060003208DF80500B6
:1059100002208DF8070069465348FCF7C5F90222BA
:1059200005215148FCF702FA6846FCF72FFA1020CF
:10593000009001208DF8040000208DF8060003205F
:105940008DF8050000208DF8070069464748FCF7F0
:10595000ABF96846FCF71AFA4FF400700090022089
:105960008DF8040000208DF8060003208DF8050056
:1059700002208DF8070069463B48FCF795F90222A2
:1059800009213948FCF7D2F96846FCF7FFF91020E5
:10599000009003208DF805008DF8040000208DF89C
:1059A000070069463048FCF77FF96846FCF7EEF9D6
:1059B0000120009003208DF805008DF804000020E0
:1059C0008DF8070069462948FCF76EF96846FCF730
:1059D000DDF94FF40050009003208DF80400002002
:1059E0008DF8070069462048FCF75EF96846FCF729
:1059F000CDF94FF48040009001208DF804008DF81F
:105A0000060000208DF805008DF80700694616484D
:105A1000FCF74AF94FF480411348FCF7B3F96846A4
:105A2000FCF7B4F900208DF8040003208DF8050080
:105A300001208DF807000220009069460B48FCF712
:105A400033F96846FCF7A2F900208DF80400032022
:105A50008DF8050001208DF80700000200906946CE
:105A60000148FCF721F91CBD00040240000002407F
:105A70000024FDF7A3FA00210846FDF7F5FBA64830
:105A8000007800285AD0FFF7B9FEFBF7B9FF43E0D2
:105A9000FCF772FE00240120FCF7F6FD0121084608
:105AA000FCF7D2FD0020FCF7EFFDFEF721F91C20EA
:105AB000FAF746FE9949887100F0C0FAFFF79EFE9A
:105AC0004FF4A060FCF7DEFC1FE0641CFCF75CFCFC
:105AD00020B993A19348FFF7F9FA0BE01420B4FB27
